:020000040800F2
:100000000050002091060008290500082B05000873
:100010002D0500082F05000831050008000000002C
:100020000000000000000000000000003305000890
:1000300035050008000000003705000839050008F4
:10004000D5060008D5060008D5060008D506000824
:10005000D5060008D5060008D5060008D506000814
:10006000D5060008D5060008D5060008D506000804
:10007000D5060008D5060008D5060008D5060008F4
:10008000D5060008D5060008D5060008D5060008E4
:10009000D5060008D5060008D5060008D5060008D4
:1000A000D5060008D5060008D5060008D5060008C4
:1000B000D5060008D5060008D5060008D5060008B4
:1000C000D5060008D5060008D5060008D5060008A4
:1000D000D5060008D5060008D5060008D506000894
:1000E000D5060008D5060008D5060008D506000884
:1000F00010B5002486B01422002101A800F0B4FF3E
:1001000001210420009400F02DFE01214FF4007025
:1001100000F028FE4FF4404000F0C6FD042369467D
:100120001D48ADF800308DF8034000F0D0FC1B48AE
:1001300000F0D2FA4FF48073ADF808304FF460232A
:100140000194CDE903340124144801A98DF8144029
:1001500000F0D6FA2146114800F0FFFA21460F4878
:1001600000F0F2FA0D4800F001FB0C4C204600F0C4
:1001700002FB0028FAD1094800F001FB074C204699
:1001800000F002FB0028FAD1044800F051FB044BB8
:10019000188006B010BD00BF0008014000240140D7
:1001A0008C000020F0B58DB004460F4616460021A5
:1001B0002C2201A81D4600F057FF0121084600F03F
:1001C000C5FD204600F0E0FB80214FF48073002243
:1001D000CDE906134FF48063CDE908324FF4405364
:1001E000204601A9CDE90176CDE90325CDE90A3202
:1001F000059200F043FC0DB0F0BD0000084BB3F9D0
:100200000030C31808D4B3F5805F40F6FF7205DAFA
:10021000904204D098B27047002070471046704753
:100220008C00002010B51022002488B00DEB0200D5
:100230002146CDE900440294ADF80C4000F014FFD3
:100240000121084600F09AFD0121052000F08AFDF9
:10025000164B69461648009300F039FC472240F2DD
:10026000E73301A94FF08040CDE9012300F0AAFD5A
:10027000104B04A904934FF4FA734FF08040ADF88B
:100280001630ADF8184000F0C5FD08214FF0804051
:1002900000F00CFE01214FF0804000F0FBFD012139
:1002A0004FF0804000F0EAFD08B010BD01000318D7
:1002B000000801406000010070B5002486B01022E3
:1002C0000546214602A8164E019400F0CDFE0121FC
:1002D00044F2040000F046FD124B304601A90193A0
:1002E00000F0F5FB4FF48063ADF804300423304692
:1002F0000DEB03018DF8073000F0E9FB4FF44023CC
:10030000CDE90254ADF81440074C02A920460493ED
:1003100000F0D6FD0121204600F016FE06B070BDAB
:10032000000801400002031800380140002110B508
:1003300086B0102202A8019100F096FE012105204E
:1003400000F010FD01214FF4001000F017FD0F4CDC
:100350000F4B01A90F48019300F0B9FB204600F0B4
:1003600007FC0D4A0D4B2046CDE902234FF0806378
:1003700004934FF4804302A9ADF8143000F012FC4E
:100380000121204600F078FC06B010BD005400406A
:10039000C000031C00080140A08601000000FFBF50
:1003A000642828BF642040F2E73141436420B1FB58
:1003B000F0F14FF0804089B200F080BD38B5094DB2
:1003C000441E14F9013F03B938BD8021054800F0EF
:1003D000CBFD0028F9D094F90010284689B200F02E
:1003E000BFFDEEE7003801407FB500F01FF900F0D7
:1003F000C1FD4FF4E13000F0F7FD3E4B3E48196877
:1004000000F03AFE00F0BAFA01463C4800F034FE33
:10041000FFF708FF4FF4E130FFF74EFFFFF786FFCD
:100420003748FFF7CBFFFFF763FE364B364DB3F986
:100430000010364800F020FE4FF480632A4634490D
:100440003448FFF7AFFE0121324800F035FB0723A7
:1004500001220221304800F0A4F901212E4800F0C9
:1004600097F9322000F0A4FD00212B4800F090F90C
:100470004FF48064294E35F9020BFFF7BFFE013CB3
:100480000146304600F0F8FDA4B20A2000F090FDCD
:10049000002CF0D1224E234DE0B2FFF781FF304611
:1004A000FFF78CFF22462946684600F0FDFD6846AE
:1004B000FFF784FF05344FF4FA7000F079FD692CE2
:1004C000EAD16424164E174D2046FFF769FF3046E7
:1004D000FFF774FF22462946684600F0E5FD6846AE
:1004E000FFF76CFF053C4FF4FA7000F061FDE4B2D9
:1004F000EAE700BF10000020482300085723000847
:10050000652300088C0000208E0000208523000851
:100510004C24014008000240002401409B230008B5
:10052000A2230008AD230008FEE7FEE7FEE7FEE792
:10053000FEE770477047704770470000374B82B046
:100540001A6842F001021A605968354A0A405A6036
:100550001A6822F0847222F480321A601A6822F437
:1005600080221A605A6822F4FE025A604FF41F0279
:100570009A600022009201921A6842F480321A6056
:100580001A6802F400320192009A01320092019A34
:100590001AB9009AB2F5A06FF2D11A6812F40032BB
:1005A00018BF01220192019A012A30D11D4A116817
:1005B00041F010011160116821F003011160116810
:1005C00041F0020111605A685A605A685A605A68CC
:1005D00042F480625A605A6822F47C125A605A6867
:1005E00042F4E8125A601A6842F080721A601A687F
:1005F0009201FCD55A6822F003025A605A6842F010
:1006000002025A605A6802F00C02082AFAD14FF02E
:100610000062054B9A6002B0704700BF00100240B4
:100620000000FFF80020024000ED00E01249134AEC
:100630004B6803F00C03082B0AD0114B13604B6876
:100640001049C3F30313C95C1368CB4013607047B0
:100650004B684868C3F38343C00303F1020305D426
:1006600009480068C00604D5054803E048688003CF
:10067000FAD506484343E1E700100240100000208D
:1006800000127A00000000200038024000093D00FE
:10069000002103E00A4B5B584350043109480A4BE0
:1006A00042189A42F6D3094A02E0002342F8043B7A
:1006B000074B9A42F9D3FFF741FFFFF795FE7047CA
:1006C0004C240008000000208C0000208C0000203A
:1006D000B0080020FEE7000008B5084B98420BD197
:1006E00001214FF4007000F055FBBDE808400021E7
:1006F0004FF4007000F04EBB08BD00BF0024014065
:1007000043680A7923F4702323F4807343EA0223B5
:100710000A6810B5134343608468D1E90223134388
:10072000084A224013434A7943EA420383600A7C21
:10073000C36A013A23F47003D2B243EA0253C3629C
:1007400010BD00BFFDF7F1FF836819B143F001034D
:100750008360704723F00103FAE7836819B143F41B
:1007600080738360704723F48073FAE7836843F0F3
:100770000803836070478068C0F3C00070478368D7
:1007800043F00403836070478068C0F380007047C3
:10079000836819B143F4A0038360704723F4A00376
:1007A000FAE7092970B51BD90726A1F10A04C56823
:1007B00004EB4404A64025EA060503FA04F42C439E
:1007C000C460062A18D8531E1F22446B03EB830310
:1007D0009A4024EA020401FA03F22243426370BD04
:1007E0000724056901EB4106B44025EA040503FA34
:1007F00006F42C430461E4E70C2A0CD81F24073AC2
:10080000036B02EB8202944023EA040301FA02F232
:100810001A430263E3E71F240D3AC36A02EB820224
:10082000944023EA040301FA02F21A43C262D6E7B3
:100830007FB5034600228DF800209DF80020092A8C
:100840002BD900238DF800309DF80020092A43D9C8
:10085000ADF802308DF800309DF80030052B7AD9C4
:100860000620BDF80220BDF8023092B299B2B1FB69
:10087000F0F300FB131303219BB2B2FBF0F2B3FBC6
:10088000F1F313449BB2ADF80230BDF80200C0F59D
:10089000006000B207B05DF804FB9A6842F00802FD
:1008A0009A601846FFF767FF0028FAD19A6842F06D
:1008B00004029A601846FFF767FF0028FAD1D96C46
:1008C0009DF8002006A800EB420222F8141C9DF8B7
:1008D00000200132D2B2AEE78DF801309DF8012040
:1008E000082A06D99DF800200132D2B28DF80020E6
:1008F000AAE79DF801109DF8012006A800EB410130
:1009000000EB420231F8141C32F8122C91421BD930
:100910009DF8012000EB420232F8142CADF80220C1
:100920009DF801109DF8012000EB410131F8121CE7
:1009300000EB420222F8141C9DF80120BDF80210C1
:1009400000EB420222F8121C9DF801200132D2B2C3
:100950008DF80120C2E79DF8002006A901EB4202B4
:10096000BDF8023032F8102C13449BB2ADF80230BF
:100970009DF800300133DBB26CE70000014B1868D2
:10098000704700BF84F8FF1F036823F001031B04B6
:100990001B0C03600023036043608360C360294B2A
:1009A000984204D1284A536843F00F0326E0274BAE
:1009B000984204D1244A536843F0F0031EE0244BCC
:1009C000984204D1204A536843F4706316E0214BE7
:1009D000984204D11C4A536843F470430EE01E4B06
:1009E000984204D1184A536843F4702306E01B4B25
:1009F000984205D1144A536843F47003536070471A
:100A0000174B984204D1104A536843F07063F5E7DE
:100A1000144B984201D1144AC5E7144B984201D1B6
:100A2000114AC8E7124B984201D10F4ACBE7114B4C
:100A3000984201D10C4ACEE70F4B9842DFD10A4AC7
:100A4000D1E700BF08000240000002401C00024045
:100A50003000024044000240580002406C00024056
:100A60008000024008040240000402401C040240CE
:100A70003004024044040240580402408B6810B520
:100A80000C6A026823430C6922F4FF4223434C6939
:100A900022F0700223438C692343CC6923434C6AC0
:100AA00023438C6A234313430360CB6843600B6882
:100AB00083604B68C36010BD036819B143F0010344
:100AC0000360704723F001031B041B0CF8E72DE9BA
:100AD000F041CB780E88DA0648BF8A7803F00F051C
:100AE00048BF15430A78D2B100214FF0010C4FF0F6
:100AF0000F0E02680CFA01F737EA06040BD18C00DE
:100B00000EFA04F822EA080205FA04F4282B42EA55
:100B1000040224D1476101310829EBD10260FF2E84
:100B20001BD908244FF0010C4FF00F0E41680CFA4E
:100B300004F737EA06020CD1A200203A0EFA02F8B6
:100B400021EA080105FA02F2282B41EA02010AD142
:100B500047610134102CEAD14160BDE8F081482B97
:100B600008BF0761D7E7482B08BF0761F1E700001E
:100B700008B50B4B012198420AD14FF4001000F048
:100B800015F900214FF40010BDE8084000F00EB93F
:100B90004FF4800000F00AF900214FF48000F3E7E1
:100BA0000054004070B586B00446868801A80D4602
:100BB00000F084F8039A2E4926F03F06B2FBF1F1CB
:100BC0003604360C88B20643A6802388294E23F0CB
:100BD00001031B041B0C23802B68B34223D85B004A
:100BE000B2FBF3F39BB2042B38BF0423013080B275
:100BF0002084A3832388AA889BB243F00103238027
:100C00002388698923F4816323F002031B040A43C8
:100C10001B0C13439BB22A892380AB8913439BB2DD
:100C2000238106B070BD4BF6FF70EE8886421BBF75
:100C30001920434303EB4303B2FBF3F30BBFB2FBB7
:100C4000F3F39BB29BB243F48043C3F30B020AB9A4
:100C500043F001034FF496724A434FF47A71B2FBAA
:100C6000F1F2013292B243F400432284C1E700BFA3
:100C700040420F00A0860100038821B19BB243F0DF
:100C800001030380704723F001031B041B0CF8E7EA
:100C9000044B04281A680CBF42F0040222F004023C
:100CA0001A60704710E000E0034A536823F44043A1
:100CB00003435360704700BF001002401D4A10B547
:100CC000536803F00C03082B1FD01B4B03605368C1
:100CD0001A4CC3F30313E15C0368CB4043605168D3
:100CE000C1F30221615C23FA01F181605168C1F313
:100CF000C221615CCB40C36052681149C2F38132AA
:100D00008A5CB3FBF2F3036110BD53685168C3F30F
:100D10008343C90303F1020305D40A490968CC06D9
:100D200004D5054903E051688903FAD506494B43C8
:100D3000CCE700BF0010024000127A00180000202B
:100D4000140000200038024000093D00044B5A699D
:100D500011B110435861704722EA0000FAE700BF62
:100D600000100240044B9A6911B11043986170471A
:100D700022EA0000FAE700BF00100240044BDA69E3
:100D800011B11043D861704722EA0000FAE700BFB2
:100D900000100240044BDA6811B11043D86070476C
:100DA00022EA0000FAE700BF00100240044B1A6973
:100DB00011B110431861704722EA0000FAE700BF42
:100DC00000100240124A038890429BB20AD0B0F150
:100DD000804F07D0A2F59432904203D002F5806292
:100DE000904203D14A8823F070031343CA8823F446
:100DF00040739BB2134303808B8883850B880385E4
:100E0000034B984204BF0B7A038601238382704709
:100E1000002C0140038C70B523F001031B041B0C54
:100E20000384038C8288048B0D8824F073042404CB
:100E3000240C4E882C4323F002030D891B043543F8
:100E40001B0C2B430C4D92B2A8429BB20ED14D8984
:100E500023F008032B438D8823F00403CE892B4312
:100E60008D8922F4407235432A4392B28280CA8827
:100E700004838286038470BD002C0140038821B165
:100E80009BB243F001030380704723F001031B046E
:100E90001B0CF8E7038821B19BB243F08003038069
:100EA000704723F080031B041B0CF8E7038B23F02F
:100EB00008031B041B0C0B43038370478186704798
:100EC00030B50D460446038A8A899BB2C98823F44B
:100ED00040530B4303828389A98823F4B05323F042
:100EE0000C031B041B0C0B43298987B00B43698936
:100EF0000B439BB28381838A9BB223F440731343D9
:100F0000838201A8FFF7DAFEDDE903230D498C4255
:100F100008BF1A46192353432A689200B3FBF2F321
:100F20006422B3FBF2F102FB11331B013233B3FB3A
:100F3000F2F303F00F0343EA01139BB2238107B0DE
:100F400030BD00BF00380140838921B19BB243F41A
:100F500000538381704723F400531B041B0CF8E7F4
:100F6000C1F30801818070470388194214BF012032
:100F70000020704708B56FF00400FFF789FE084BAA
:100F8000084A1B68B3FBF2F3074ADBB21370C3EBEA
:100F9000431203EB8203054ADB00138008BD00BF48
:100FA0001000002000127A00900800208E08002017
:100FB00000220B4B1B8858430A4B58609A601A68F2
:100FC00042F001021A601A6802F00112012AFAD0F6
:100FD0001A6822F001021A6000229A60704700BF6E
:100FE0008E08002010E000E010B5012186B0044614
:100FF00044F20400FFF7B6FE0C4B01A90C48019324
:10100000FFF765FD00234FF400220294094C02A96A
:101010002046CDE90332ADF81430FFF751FF01212E
:101020002046FFF791FF06B010BD00BF0002031875
:101030000008014000380140F8B50E46144600256E
:10104000084FA54201DB2046F8BD40210548FFF7C7
:101050008BFF0028F9D07157384689B2FFF780FF1F
:101060000135EEE70038014003460244934200D1C7
:10107000704703F8011BF9E70FB40A4B13B51C685E
:1010800024B1A36913B9204600F086F805AB2046C9
:10109000049AA168019300F0FDFA02B0BDE8104087
:1010A00004B07047280000200EB46FF0004100B576
:1010B0009CB01DAB02900690079104910848094925
:1010C00053F8042B0591006802A9019300F0BAF9C6
:1010D0000022029B1A701CB05DF804EB03B070474D
:1010E000280000200802FFFF002310B50446C0E9D5
:1010F0000033C0E90433836081814366C281836128
:10110000194608225C30FFF7AFFF054B246263628B
:10111000044BA362044BE362044B236310BD00BF86
:10112000411C0008631C00089B1C0008BF1C000831
:10113000014900F0AFB800BF991F000870B56825DD
:101140004A1E55430E4605F1740100F0C5F80446E9
:1011500040B10021C0E900160C30A06005F1680222
:10116000FFF782FF204670BD014800F0B3B800BF12
:10117000A8080020014800F0AEB800BFA808002071
:10118000014800F0A7B800BFA3080020014800F004
:10119000A2B800BFA308002010B50446FFF7F0FF77
:1011A000A3691BB1BDE81040FFF7F0BFC4E91233DB
:1011B0002365134B134A1B68A262A34208BF012395
:1011C000204608BFA36100F01FF86060204600F0D1
:1011D0001BF8A060204600F017F800220421E06010
:1011E0006068FFF781FF01220921A068FFF77CFFFB
:1011F00002221221E068FFF777FF0123A361D1E704
:101200001424000831110008F8B50746FFF7ACFFB9
:101210001E4B1E68B36913B93046FFF7BDFF483651
:10122000D6E90134013B03D533680BB33668F7E7E1
:10123000B4F90C50D5B9164B04F15800E36065665B
:1012400000F047F8FFF796FF08222946C4E9015548
:10125000C4E904552560A56104F15C00FFF704FFB3
:10126000C4E90D55C4E912552046F8BD6834D9E7E4
:1012700004213846FFF762FF044630600028D5D1CC
:10128000FFF778FF0C233B60EEE700BF1424000853
:101290000100FFFF2DE9F84306468846002700F1CC
:1012A0004804D4E90195B9F1010905D52468002C59
:1012B000F7D13846BDE8F883AB89012B07D9B5F9DA
:1012C0000E30013303D029463046C0470743683506
:1012D000E9E7704770477047F8B5CD1C25F0030566
:1012E00008350C2D38BF0C25002D064601DBA94220
:1012F00003D90C2333600020F8BD00F035FF2149ED
:101300000A6814469CB9204F3B6823B921463046F1
:1013100000F086FC38602946304600F081FC431C12
:1013200023D10C233046336000F024FFE3E7236829
:101330005B1B17D40B2B03D923601C44256004E0EE
:101340006368A2420CBF0B605360304600F012FF8E
:1013500004F10B00231D20F00700C21ACCD01B1A89
:10136000A350C9E722466468CCE7C41C24F00304F8
:10137000A042E3D0211A304600F052FC0130DDD10A
:10138000CFE700BF94080020980800202DE9F0471F
:101390008E6882469E420C4690461F4638D88A89FF
:1013A00012F4906F32D0256809690133A5EB010969
:1013B00065694B4405EB450505EBD5756D109D4200
:1013C00038BF1D46530531D52946FFF785FF064630
:1013D00050B90C234FF0FF30CAF80030A38943F016
:1013E0004003A381BDE8F0874A46216900F094FEDE
:1013F000A38923F4906343F08003A38126614E44C4
:1014000026603E466561A5EB0905A560BE4200D990
:101410003E4632464146206800F08CFEA3682268B2
:101420009B1B32440020A3602260DBE72A4600F0C9
:10143000F3FE06460028E1D15046216900F0A0FEE7
:10144000C7E700002DE9F04F98468B8907461B0639
:101450000D4614469DB00ED50B6963B94021FFF7C8
:101460003BFF2860286120B90C233B604FF0FF3020
:10147000D1E040236B610023099320238DF82930AC
:1014800030234FF00109CDF80C80DFF8A4818DF8EE
:101490002A3023469A4613F8012B0AB1252AF9D19E
:1014A000BAEB040B0BD05B46224629463846FFF7C1
:1014B0006DFF013000F0AA80099A5A4409929AF807
:1014C0000030002B00F0A28000234FF0FF32CDE966
:1014D00005230AF1010A049307938DF853301A93F8
:1014E0005446052214F8011B514800F007FE049AE7
:1014F000D8B9D00644BF20238DF85330110744BF1C
:101500002B238DF853309AF800302A2B15D05446EF
:1015100000204FF00A0C079A214611F8013B303B9E
:10152000092B4ED9B0B1079214E0A0EB080309FAD9
:1015300003F31343A2460493D2E7039B191D1B68D0
:101540000391002BBBBF5B4242F00202079307935B
:10155000B8BF049223782E2B0CD163782A2B35D177
:10156000039B02341A1D1B680392002BB8BF4FF077
:10157000FF330593DFF8C8A003225046217800F01E
:10158000BDFD40B14023A0EB0A0003FA00F0049B2C
:1015900001340343049314F8011B062225488DF8F7
:1015A000281000F0ABFD002838D0234B1BBB039B59
:1015B000073323F0070308330393099B334409934C
:1015C00067E70C4601200CFB0232A5E700234FF031
:1015D0000A0C194601340593204610F8012B303AC5
:1015E000092A03D9002BC5D00591C3E7044601237E
:1015F0000CFB0121F0E703AB00932A4638460F4B62
:1016000004A9AFF30080421C0646D6D1AB895B0625
:101610003FF52CAF09981DB0BDE8F08F03AB0093E8
:101620002A463846054B04A900F0D4F9EBE700BF81
:101630001824000822240008000000008D13000870
:101640001E240008936810B4013B002B936007DA56
:101650009469A34201DB0A2902D110BC00F034BB1B
:101660001368581C10601970084610BC7047F8B514
:1016700006460F461446D518AC4201D1002007E0BB
:101680003A46304614F8011BFFF7DCFF431CF3D148
:10169000F8BD00002DE9F04F0D4614469846064669
:1016A0009DB018B183690BB9FFF776FD894B9D4258
:1016B0001BD175686B6ED90705D4AB899A0502D426
:1016C000A86DFFF707FEAB891B0701D52B69EBB9A6
:1016D0002946304600F05CFBC0B16B6EDC070ED5CE
:1016E0004FF0FF301DB0BDE8F08F7B4B9D4201D124
:1016F000B568DFE7794B9D4208BFF568DAE7AB894B
:101700009805EDD4A86DFFF7E6FDE9E700230993FE
:1017100020238DF8293030234FF00109CDF80C80BB
:10172000DFF8BC818DF82A3023469A4613F8012B46
:101730000AB1252AF9D1BAEB040B0BD05B4622463D
:1017400029463046FFF793FF013000F0AA80099A3E
:101750005A4409929AF80030002B00F0A28000232E
:101760004FF0FF32CDE905230AF1010A04930793F4
:101770008DF853301A935446052214F8011B58482B
:1017800000F0BCFC049AD8B9D10644BF20238DF8E0
:101790005330130744BF2B238DF853309AF8003091
:1017A0002A2B15D0544600204FF00A0C079A2146E8
:1017B00011F8013B303B092B4ED9B0B1079214E030
:1017C000A0EB080309FA03F31343A2460493D2E7FC
:1017D000039B191D1B680391002BBBBF5B4242F0AA
:1017E000020207930793B8BF049223782E2B0CD1E3
:1017F00063782A2B35D1039B02341A1D1B68039290
:10180000002BB8BF4FF0FF330593DFF8E4A00322AD
:101810005046217800F072FC40B14023A0EB0A0052
:1018200003FA00F0049B01340343049314F8011BF2
:1018300006222C488DF8281000F060FC00283FD0CC
:10184000294B1BBB039B073323F007030833039388
:10185000099B3B44099367E70C4601200CFB0232CD
:10186000A5E700234FF00A0C1946013405932046E2
:1018700010F8012B303A092A03D9002BC5D0059165
:10188000C3E7044601230CFB0121F0E703AB0093FF
:101890002A463046154B04A9AFF300800746781C52
:1018A000D6D16B6ED90705D4AB899A0502D4A86D41
:1018B000FFF711FDAB895B063FF512AF099811E701
:1018C00003AB00932A463046084B04A900F082F887
:1018D000E4E700BFD4230008F4230008B423000881
:1018E0001824000822240008000000006F160008D9
:1018F0001E2400082DE9F047164699468A680B69B0
:1019000007469342B8BF1346336091F843200C4614
:10191000DDF820800AB1013333602368990642BFA5
:10192000336802333360256815F0060506D104F1EB
:10193000190AE36832689B1AAB4228DC94F843200A
:10194000131E226818BF012392062DD4494638463B
:1019500004F14302C047013020D02368E56803F05A
:101960000603042B18BF002532684FF00006A36859
:1019700008BFAD1A226908BF25EAE5759342C4BFC6
:101980009B1AED181A34B5421AD1002008E0012341
:10199000524649463846C047013003D14FF0FF3028
:1019A000BDE8F0870135C4E73020E11881F8430035
:1019B0005A1C94F845102244023382F84310C5E7BC
:1019C0000123224649463846C0470130E6D0013659
:1019D000D9E700002DE9FF470C46277E9146782F76
:1019E00080469A460C9904F1430207D8622F0AD820
:1019F000002F00F0D980582F00F0A48004F1420697
:101A000084F842703AE0A7F16303152BF6D801A0E1
:101A100050F823F06D1A0008811A0008FD1900081B
:101A2000FD190008FD190008FD190008811A0008B9
:101A3000FD190008FD190008FD190008FD1900082E
:101A40008F1B0008B11A0008711B0008FD1900085F
:101A5000FD190008B11B0008FD190008B11A0008A3
:101A6000FD190008FD190008791B00080B6804F136
:101A700042061A1D1B680A6084F842300123A4E064
:101A8000256808682E0600F104030AD505680B6076
:101A9000002D03DA2D236D4284F843300A235E487B
:101AA00019E015F0400F05680B6018BF2DB2EFE785
:101AB0000B682568181D0860280601D51D6802E01E
:101AC0006906FBD51D886F2F0CBF08230A235248D7
:101AD000002184F843106668002EA8BF2168A66024
:101AE000A4BF21F0040121600DB9002E4DD016468F
:101AF000B5FBF3F103FB1157C75D06F8017D2F46D7
:101B0000BB420D46F4D9082B0BD12368DF0708D55B
:101B1000236961689942DEBF302306F8013C06F173
:101B2000FF36921B22614B4621464046CDF800A06D
:101B300003AAFFF7DFFE01304CD14FF0FF3004B0B5
:101B4000BDE8F087344884F845700E68236856F87D
:101B5000045B1F060E6014D5D90744BF43F0200371
:101B600023601DB9236823F0200323601023AFE70F
:101B7000236843F0200323607823284884F8453005
:101B8000E3E75E0648BFADB2E6E71646BBE70B6883
:101B900026681D1D60690D6035061B6801D518603B
:101BA00002E07106FBD51880002316462361BAE7D0
:101BB0000B681A1D0A601E6800213046626800F03A
:101BC0009DFA08B1801B606063682361002384F87C
:101BD0004330A8E73246494640462369D0470130A2
:101BE000ABD023689B0713D4E068039B9842B8BF2F
:101BF0001846A4E70123324649464046D047013003
:101C00009BD00135E36803995B1AAB42F2DCEBE74A
:101C1000002504F11906F5E7292400083A240008F4
:101C200038B50023054D044608462B6000F07EFBC6
:101C3000431C02D12B6803B1236038BDAC080020DF
:101C400010B50C46B1F90E1000F00CFB0028ABBF2C
:101C5000636DA3891B1823F48053ACBF6365A38114
:101C600010BD2DE9F0411F468B890546DB050C466A
:101C7000164605D502230022B1F90E1000F0C8F96E
:101C8000A389324623F48053A38128463B46B4F906
:101C90000E10BDE8F04100F069B810B50C46B1F97E
:101CA0000E1000F0B5F9431CA38915BF606523F43D
:101CB000805343F48053A38118BFA38110BDB1F9B1
:101CC0000E1000F0D3B80000F8B50E4614460546D5
:101CD00018B183690BB9FFF75FFA214B9C422BD1F6
:101CE0006C68A369A360A3891A072FD523696BB316
:101CF00023692068F6B2C01A63693746834204DC60
:101D00002146284600F048F930BBA3680130013B6A
:101D1000A36023685A1C22601E706369834204D04A
:101D2000A389DB0706D50A2E04D12146284600F0F8
:101D300033F988B93846F8BD0A4B9C4201D1AC68EA
:101D4000CFE7094B9C4208BFEC68CAE7214628460A
:101D500000F01EF80028CBD04FF0FF37EAE700BFB5
:101D6000D4230008F4230008B423000838B504463F
:101D7000084611460022054D2A601A46FFF75CF915
:101D8000431C02D12B6803B1236038BDAC0800208E
:101D9000324B70B51D6806460C4625B1AB6913B9C8
:101DA0002846FFF7F9F92E4B9C420FD16C68A389A6
:101DB000B4F90C2019072CD4DD0611D409233360A3
:101DC00042F040034FF0FF30A3813EE0254B9C42A0
:101DD00001D1AC68EBE7244B9C4208BFEC68E6E716
:101DE000580712D5616B41B104F14403994202D006
:101DF000304600F0C5F900236363A38923F0240370
:101E0000A3810023636023692360A38943F008034F
:101E1000A38123694BB9A38903F42073B3F5007F31
:101E200003D02146304600F029F9A089B4F90C20EE
:101E300010F001030AD00023A36063695B42A36131
:101E4000236943B910F08000BAD170BD810758BF33
:101E50006369A360F4E70020F7E700BF28000020D3
:101E6000D4230008F4230008B423000838B5002365
:101E7000054D044608462B6000F030FA431C02D1A1
:101E80002B6803B1236038BDAC0800208A892DE996
:101E9000F041054610070C4658D44B68002B05DC72
:101EA0000B6C002B02DC0020BDE8F081E66A002EFE
:101EB000F9D0002312F480522F682B6032D0606D6D
:101EC000A3895A0705D56368C01A636B0BB1236CED
:101ED000C01A00230246E66A2846216AB047431C1E
:101EE000A38906D129681D292CD82A4ACA40D607B9
:101EF00028D5002262602269D904226004D5421CE0
:101F000001D12B6803B96065616B2F600029CAD0CD
:101F100004F14403994202D0284600F031F9002030
:101F20006063C1E7216A01232846B047411CC7D13D
:101F30002B68002BC4D01D2B01D0162B01D12F6094
:101F4000B1E7A38943F04003A381ADE70F69002FF8
:101F5000A9D0930718BF00230E6808BF4B69A6EBF2
:101F600007080F608B60B8F1000F9CDD43463A46CE
:101F70002846216AA66AB047002806DCA3894FF0EC
:101F8000FF3043F04003A3818EE70744A8EB00082D
:101F9000E9E700BF0100402038B50B6905460C4653
:101FA00013B90025284638BD18B183690BB9FFF76E
:101FB000F3F8144B9C421BD16C68B4F90C30002B25
:101FC000EFD0626ED00704D4990502D4A06DFFF75C
:101FD00081F928462146FFF759FF636E0546DA0767
:101FE000E0D4A3899B05DDD4A06DFFF774F9D9E790
:101FF000054B9C4201D1AC68DFE7044B9C4208BF13
:10200000EC68DAE7D4230008F4230008B4230008BE
:1020100038B50446084611460022054D2A601A4686
:1020200000F074F9431C02D12B6803B1236038BD62
:10203000AC08002070B50E46B1F90E101446002908
:102040001D4696B007DA00232B60B3891A0610D418
:102050004FF480630EE06A4600F016F90028F2DBC8
:10206000019A02F47042A2F500535A425A412A6082
:10207000EEE740230020236016B070BD8B8973B556
:102080009D0706460C4607D504F1470323602361EC
:102090000123636102B070BD6A4601ABFFF7CAFF5E
:1020A000009905463046FFF717F948B9B4F90C30E6
:1020B0009A05EFD423F0030343F00203A381E3E77F
:1020C0000D4BB362A389206043F08003A381009B82
:1020D00020616361019B5BB13046B4F90E1000F0E2
:1020E000E5F828B1A38923F0030343F00103A3819A
:1020F000A0890543A581CDE731110008034610B53D
:10210000C9B202449342184601D1002003E004788A
:1021100001338C42F6D110BD0A44914200F1FF33E5
:1021200000D1704710B511F8014B914203F8014FEF
:10213000F9D110BD884210B501EB020402D98442E6
:10214000234607D8431EA14208D011F8012B03F8FB
:10215000012FF8E7014602448A4200D110BD13F86E
:10216000014D02F8014DF7E70148FFF7B3B800BF92
:10217000A40800200148FFF7AEB800BFA408002063
:1021800038B50546002943D051F8043C0C1F002BFC
:10219000B8BFE418FFF7E8FF1E4A1368104633B9CA
:1021A000636014602846BDE83840FFF7E3BFA342F0
:1021B0000AD921686218934201BF1A685B685218F5
:1021C000226063600460EDE71A465B680BB1A342CE
:1021D000FAD911685018A0420BD120680144501858
:1021E00083421160DED118685B680144116053605E
:1021F000D8E702D90C232B60D4E7206821188B4242
:1022000001BF19685B680918216063605460C9E701
:1022100038BD00BF94080020F8B5074614460E46A6
:1022200021B91146BDE8F840FFF756B822B9FFF7CB
:10223000A7FF25462846F8BD00F048F8A0420FD277
:1022400021463846FFF748F805460028F2D03146C7
:102250002246FFF761FF31463846FFF791FFE9E775
:102260003546E7E738B50446084611460022054DD5
:102270002A601A4600F052F8431C02D12B6803B1C1
:10228000236038BDAC08002038B50023064D044655
:10229000084611462B6000F029F8431C02D12B6838
:1022A00003B1236038BD00BFAC08002038B500235F
:1022B000054D044608462B6000F020F8431C02D16F
:1022C0002B6803B1236038BDAC08002051F8043CF2
:1022D000181F002BBCBF0B58C01870475822024B68
:1022E0004FF0FF301A607047AC0800205822024BB4
:1022F0004FF0FF301A607047AC0800205822024BA4
:1023000000201A60704700BFAC0800205822024B22
:102310004FF0FF301A607047AC0800205822024B83
:102320004FF0FF301A607047AC080020044A05499E
:102330001368002B08BF0B461844106018467047FE
:102340009C080020B008002053797374656D436CBD
:102350006B3A25640D0A004368697049443A253098
:1023600038780D0A00434833324631303320505715
:102370004D2B554152542B49324320496E697420EC
:102380004F4B0D0A0043616C696272617474696F2E
:102390006E56616C75653A25640A00253034640D0B
:1023A0000A0050574D20447574793A200025642561
:1023B000250D0A00000000000000000000000000E1
:1023C000000000000000000000000000000000000D
:1023D00000000000000000000000000000000000FD
:1023E00000000000000000000000000000000000ED
:1023F00000000000000000000000000000000000DD
:1024000000000000000000000000000000000000CC
:10241000000000002C000020232D302B2000686CD1
:102420004C006566674546470030313233343536F7
:102430003738394142434445460030313233343530
:0C2440003637383961626364656600005D
:10244C000000000000000000010203040607080958
:10245C0000A24A0402040608000000000102030462
:10246C0001020304060708092C00002000000000EC
:10247C00D4230008F4230008B42300080000000053
:10248C000000000000000000000000000000000040
:10249C000000000000000000000000000000000030
:1024AC000000000000000000000000000000000020
:1024BC000000000000000000000000000000000010
:0C24CC0000000000000000000000000004
:040000050800069158
:00000001FF
