:020000040800F2
:1000000000280020A5130008F5110008F7110008CA
:10001000F9110008FB110008FD11000800000000A4
:10002000000000000000000000000000FF110008B8
:100030000112000800000000031200081912000855
:10004000E9130008E9130008E9130008E9130008A0
:10005000E9130008E9130008E9130008E913000890
:10006000E9130008E9130008E9130008E913000880
:10007000E9130008E9130008E9130008E913000870
:10008000E9130008E9130008E9130008E913000860
:10009000E9130008E9130008E9130008E913000850
:1000A000E9130008E9130008E9130008E913000840
:1000B000E9130008E913000829120008E9130008F1
:1000C000E9130008E9130008E9130008E913000820
:1000D000E9130008E9130008E9130008E913000810
:1000E000E9130008E9130008E9130008E913000800
:1000F00081F0004102E000BF83F0004330B54FEAD9
:1001000041044FEA430594EA050F08BF90EA020F45
:100110001FBF54EA000C55EA020C7FEA645C7FEAD8
:10012000655C00F0E2804FEA5454D4EB5555B8BFFB
:100130006D420CDD2C4480EA020281EA030382EA6C
:10014000000083EA010180EA020281EA0303362DFE
:1001500088BF30BD11F0004F4FEA01314FF4801CD1
:100160004CEA113102D0404261EB410113F0004FE3
:100170004FEA03334CEA133302D0524263EB43039A
:1001800094EA050F00F0A780A4F10104D5F1200E38
:100190000DDB02FA0EFC22FA05F2801841F1000193
:1001A00003FA0EF2801843FA05F359410EE0A5F167
:1001B00020050EF1200E012A03FA0EFC28BF4CF098
:1001C000020C43FA05F3C01851EBE37101F000454E
:1001D00007D54FF0000EDCF1000C7EEB00006EEB5B
:1001E0000101B1F5801F1BD3B1F5001F0CD34908E5
:1001F0005FEA30004FEA3C0C04F101044FEA44523C
:1002000012F5800F80F09A80BCF1004F08BF5FEAC2
:10021000500C50F1000041EB045141EA050130BDA2
:100220005FEA4C0C404141EB0101013C28BFB1F5B4
:10023000801FE9D291F0000F04BF01460020B1FAFF
:1002400081F308BF2033A3F10B03B3F120020CDAD2
:100250000C3208DD02F1140CC2F10C0201FA0CF0B0
:1002600021FA02F10CE002F11402D8BFC2F1200C15
:1002700001FA02F120FA0CFCDCBF41EA0C019040CB
:10028000E41AA2BF01EB0451294330BD6FEA040414
:100290001F3C1CDA0C340EDC04F11404C4F12002FF
:1002A00020FA04F001FA02F340EA030021FA04F311
:1002B00045EA030130BDC4F10C04C4F1200220FA68
:1002C00002F001FA04F340EA0300294630BD21FAA6
:1002D00004F0294630BD94F0000F83F4801306BF6C
:1002E00081F480110134013D4EE77FEA645C18BF60
:1002F0007FEA655C29D094EA050F08BF90EA020FF7
:1003000005D054EA000C04BF1946104630BD91EAEE
:10031000030F1EBF0021002030BD5FEA545C05D1F1
:100320004000494128BF41F0004130BD14F5800430
:100330003CBF01F5801130BD01F0004545F0FE41A4
:1003400041F470014FF0000030BD7FEA645C1ABFD9
:10035000194610467FEA655C1CBF0B46024650EA10
:10036000013406BF52EA033591EA030F41F400213C
:1003700030BD00BF90F0000F04BF0021704730B5C2
:100380004FF4806404F132044FF000054FF0000197
:1003900050E700BF90F0000F04BF0021704730B558
:1003A0004FF4806404F1320410F0004548BF40422D
:1003B0004FF000013EE700BF42004FEAE2014FEA82
:1003C00031014FEA02701FBF12F07F4393F07F4F5D
:1003D00081F06051704732F07F4208BF704793F060
:1003E0007F4F04BF41F40021704730B54FF4607473
:1003F00001F0004521F000411CE700BF50EA010276
:1004000008BF704730B54FF000050AE050EA01021E
:1004100008BF704730B511F0004502D5404261EB8E
:1004200041014FF4806404F132045FEA915C3FF4CF
:10043000D8AE4FF003025FEADC0C18BF03325FEA6C
:10044000DC0C18BF033202EBDC02C2F1200300FA1D
:1004500003FC20FA02F001FA03FE40EA0E0021FA42
:1004600002F11444BDE600BF70B54FF0FF0C4CF430
:10047000E06C1CEA11541DBF1CEA135594EA0C0FE2
:1004800095EA0C0F00F0DEF82C4481EA030621EA1D
:100490004C5123EA4C5350EA013518BF52EA033558
:1004A00041F4801143F4801338D0A0FB02CE4FF00A
:1004B0000005E1FB02E506F00042E0FB03E54FF03A
:1004C0000006E1FB03569CF0000F18BF4EF0010E32
:1004D000A4F1FF04B6F5007F64F5407404D25FEA2E
:1004E0004E0E6D4146EB060642EAC62141EA5551E1
:1004F0004FEAC52040EA5E504FEACE2EB4F1FD0C23
:1005000088BFBCF5E06F1ED8BEF1004F08BF5FEAA0
:10051000500E50F1000041EB045170BD06F0004652
:1005200046EA010140EA020081EA0301B4EB5C04FF
:10053000C2BFD4EB0C0541EA045170BD41F48011F7
:100540004FF0000E013C00F3AB8014F1360FDEBF1C
:10055000002001F0004170BDC4F10004203C35DAF8
:100560000C341BDC04F11404C4F1200500FA05F37B
:1005700020FA04F001FA05F240EA020001F000421C
:1005800021F0004110EBD37021FA04F642EB060192
:100590005EEA430E08BF20EAD37070BDC4F10C04BC
:1005A000C4F1200500FA04F320FA05F001FA04F280
:1005B00040EA020001F0004110EBD37041F100016C
:1005C0005EEA430E08BF20EAD37070BDC4F1200577
:1005D00000FA05F24EEA020E20FA04F301FA05F2DF
:1005E00043EA020321FA04F001F0004121FA04F287
:1005F00020EA020000EBD3705EEA430E08BF20EA57
:10060000D37070BD94F0000F0FD101F00046400090
:1006100041EB010111F4801F08BF013CF7D041EA12
:10062000060195F0000F18BF704703F00046520016
:1006300043EB030313F4801F08BF013DF7D043EAE7
:100640000603704794EA0C0F0CEA135518BF95EA9D
:100650000C0F0CD050EA410618BF52EA4306D1D124
:1006600081EA030101F000414FF0000070BD50EA43
:10067000410606BF1046194652EA430619D094EACD
:100680000C0F02D150EA013613D195EA0C0F05D1B7
:1006900052EA03361CBF104619460AD181EA03010B
:1006A00001F0004141F0FE4141F470014FF00000C3
:1006B00070BD41F0FE4141F4780170BD70B54FF05E
:1006C000FF0C4CF4E06C1CEA11541DBF1CEA1355DE
:1006D00094EA0C0F95EA0C0F00F0A7F8A4EB0504C0
:1006E00081EA030E52EA03354FEA013100F08880B7
:1006F0004FEA03334FF0805545EA131343EA126380
:100700004FEA022245EA111545EA10654FEA002634
:100710000EF000419D4208BF964244F1FD0404F5ED
:10072000407402D25B084FEA3202B61A65EB030549
:100730005B084FEA32024FF480104FF4002CB6EB06
:10074000020E75EB030E22BFB61A754640EA0C0086
:100750005B084FEA3202B6EB020E75EB030E22BFC6
:10076000B61A754640EA5C005B084FEA3202B6EB07
:10077000020E75EB030E22BFB61A754640EA9C00C6
:100780005B084FEA3202B6EB020E75EB030E22BF96
:10079000B61A754640EADC0055EA060E18D04FEA54
:1007A000051545EA16754FEA06164FEAC30343EAF4
:1007B00052734FEAC2025FEA1C1CC0D111F4801FC1
:1007C0000BD141EA00014FF000004FF0004CB6E7BA
:1007D00011F4801F04BF01430020B4F1FD0C88BF59
:1007E000BCF5E06F3FF6AFAEB5EB030C04BFB6EB64
:1007F000020C5FEA500C50F1000041EB045170BD57
:100800000EF0004E4EEA113114EB5C04C2BFD4EB83
:100810000C0541EA045170BD41F480114FF0000E07
:10082000013C90E645EA060E8DE60CEA135594EA83
:100830000C0F08BF95EA0C0F3FF43BAF94EA0C0F86
:100840000AD150EA01347FF434AF95EA0C0F7FF4FB
:1008500025AF104619462CE795EA0C0F06D152EA4F
:1008600003353FF4FDAE1046194622E750EA410633
:1008700018BF52EA43067FF4C5AE50EA41047FF444
:100880000DAF52EA43057FF4EBAE12E74A0011D2F6
:1008900012F5001211D20DD56FF47873B3EB6252DA
:1008A0000ED44FEAC12343F0004343EA505323FAE6
:1008B00002F070474FF00000704750EA013002D15B
:1008C0004FF0FF3070474FF000007047034613F8B9
:1008D000012B002AFBD1181A0138704708B500F027
:1008E000E3FE4FF4803000F0FFFE312000F0C4FF43
:1008F0000028FAD04FF480304FF4E01100F010FFE0
:10090000012000F017FF392000F0B6FF0028FAD0D0
:10091000002000F027FF4FF4806000F02DFF002042
:1009200000F034FF022000F00BFF00F013FF082856
:10093000FBD1BDE8084000F003BD000010B5102257
:10094000002488B00DEB02002146CDE9004402945A
:10095000ADF80C4001F054F90121032000F074FFC0
:100960000121052000F064FF204B694620480093D8
:1009700000F03BFD032240F2833301A94FF0804099
:10098000CDE9012300F08CFF1A4BADF81840049319
:100990001A23194C04A94FF08040ADF8163000F02E
:1009A000DBFF08214FF0804001F02FF8204601A91D
:1009B00000F076FF204604A900F09AFF20460821A7
:1009C00001F01BF801214FF0804001F00AF80121ED
:1009D0004FF0804000F0F0FF2046012101F001F8C7
:1009E0000121204600F0E8FF08B010BD18000318F0
:1009F000000801406000010000040040642928BF95
:100A00006421032910B50C4638BF032440F283311A
:100A100064236143B1FBF3F10C2889B206D14FF096
:100A2000804000F0FEFF054B1C7010BD0028FCD17B
:100A3000034800F0F4FF034BF6E700BF000000207E
:100A4000000400400400002070B90E4A11700E4AE4
:100A500031B90E4B4FF080401B78137000F0E1BFAE
:100A60000C201178FFF7CABF094A1170094A29B949
:100A7000094B0A481B78137000F0D1BF0020117891
:100A8000F0E700BF0200002001000020000000206D
:100A900006000020050000200400002000040040A3
:100AA000002307B501210820019300F0C1FE044B8B
:100AB000044801A9019300F098FC03B05DF804FB21
:100AC00000C00348000C014038B54FF4804156483F
:100AD00000F0DBFC0128554D47D1554B55491A68AC
:100AE0002870B2B909681960534B1A704FF400416D
:100AF0004D4800F0CAFC0128504D7CD1504B4D4967
:100B00001A682870002A49D1096819604D4B1A707B
:100B100038BD0B689B1AB3F5FA7FE7D34A4B0A68D6
:100B20001C68121B312A1A46E0D9434D474C2B78DA
:100B30002BB923782870B3FA83F35B0923700B6811
:100B40000C201360424B22781978012A0CBF013126
:100B500001F1FF31C9B2032938BF0321642928BF3D
:100B600064211970FFF74AFFC0E72B78012BBDD134
:100B7000304B2F4C1A682168521AB2F5FA7F07D20F
:100B8000344B00201978B1FA81F14909FFF75CFF75
:100B90000023294A2B7023601370A7E70B689B1A68
:100BA000B3F5FA7FB4D32C4B0A681C68121B312AA8
:100BB0001A46ADD9234D294C2B782BB923782870B0
:100BC000B3FA83F35B0923700B6800201360244B96
:100BD00022781978012A0CBF013101F1FF31C9B225
:100BE000032938BF0321642928BF64211970BDE897
:100BF0003840FFF703BF2878012889D10D4B104CEE
:100C00001A682168521AB2F5FA7F06D2154B197884
:100C1000B1FA81F14909FFF717FF0023094A2B7048
:100C20002360137074E700BF000C0140AC0100208A
:100C3000B0010020A0010020AE010020AD01002085
:100C4000B8010020B4010020A4010020030000200E
:100C50000000002002000020A80100200700002062
:100C600004000020060000201FB5002301210420FD
:100C7000CDE90133ADF80C30009300F0E5FD092318
:100C800041F61F420D4C01A92046CDE9012300F099
:100C900007FE2046012100F0D2FE01222046114627
:100CA00000F096FE0121204600F086FE044B6846C7
:100CB000009300F0C1FC04B010BD00BF000800406C
:100CC0001E010101002110B586B0102202A8019179
:100CD00000F096FF0121092000F0AAFD01214FF448
:100CE000001000F0B1FD0F4C0F4B01A90F4801930C
:100CF00000F07BFB204600F0D1FB0D4A0D4B204657
:100D0000CDE902234FF0806304934FF4804302A99E
:100D1000ADF8143000F0DCFB0121204600F042FC6D
:100D200006B010BD00540040C000031C000C014080
:100D3000A08601000000FFBF70B501213A4800F015
:100D40003DFC3A4D384C2946204600F069FC00280D
:100D5000F9D000224621344800F059FC344D324C81
:100D60002946204600F05CFC0028F9D010212E48CE
:100D700000F048FC2F4D2C4C2946204600F050FC3A
:100D80000028F9D00121284800F024FC122000F0AE
:100D9000D7FE0121244800F011FC244D224C2946A5
:100DA000204600F03DFC0028F9D0012246211E48D3
:100DB00000F02DFC204D1C4C2946204600F030FC54
:100DC0000028F9D01D4D184C2946204600F028FC7B
:100DD0000028F9D0144800F017FC012105461248FC
:100DE00000F004FC154E104C3146204600F018FC73
:100DF0000028F9D00C4800F007FC044600210A48FE
:100E000000F0F4FB0121084800F0E4FB44EA05206F
:100E1000FFF7C0FA4FF03332094BFFF74FFCFFF7F3
:100E200035FD80B270BD00BF0054004001000300DA
:100E30008200070084000700020003004000030056
:100E40003333F33F70B51C4B1B78002B32D01B4B58
:100E50001A781B4B1B7813432CD11A4E1A4D33684A
:100E60002A689B1AB3F5FA7F24D9FFF765FFB0F51E
:100E70007A7F88BF4FF47A724FF00A01134B94BF08
:100E800018801A801C88124BB4FBF1F41B78C4F153
:100E90006404012BE4B203D121460C20FFF7AEFD20
:100EA0000C4B1B78012B03D121460020FFF7A6FD38
:100EB00033682B6070BD00BF96000020AC0100209D
:100EC000AD010020A0010020980000209400002027
:100ED000020000200600002070B5002486B0102219
:100EE0000546214602A8164E019400F089FE012114
:100EF00044F2040000F09CFC124B304601A901931F
:100F000000F073FA4FF48063ADF8043004233046E8
:100F10000DEB03018DF8073000F067FA4FF4402322
:100F2000CDE90254ADF81440074C02A920460493C1
:100F300000F08AFD0121204600F0CAFD06B070BD18
:100F400000080140000203180038014038B52F495D
:100F5000044600F00BFF30B320462D4900F006FF99
:100F600068B1073000F048FE2A4BC5B21B78012B50
:100F700003D129460C20FFF741FD274B1D70204669
:100F8000264900F0F3FE68B1083000F035FE244B2E
:100F9000C4B21B78012B03D121460020FFF72EFDA0
:100FA000204B1C7038BD20461F4900F0DFFE05466F
:100FB00058B120461D4900F0D9FE0028F2D0093072
:100FC00000F01AFE1A4B1870ECE72046194900F0A1
:100FD000CDFE0028E6D020460D4900F0C7FE30B116
:100FE000073000F009FEC1B22846FFF72DFD20466C
:100FF0000A4900F0BBFE0028D4D0083000F0FCFD08
:10100000BDE83840C1B20120FFF71EBD28310008FD
:1010100038310008020000200100002040310008A3
:101020000600002005000020493100085C3100085E
:10103000960000206631000838B520210E4800F0E7
:101040005BFD80B10C4800F053FDC3B20A2B0B4C82
:1010500001D00D2B08D1237833B100250848C554A1
:10106000FFF774FF257038BD2378FF2B1FBF5A1C74
:101070002270034AD054F6E7003801409C0000205B
:101080009D000020F0B50024C7B0FC22214607A82F
:10109000069400F0B5FD184B184A1B7806AD059371
:1010A000174B28461B7817490493174B174F1B788B
:1010B0000393174B1B780293164B1B780193164B27
:1010C0001B880093154B12781B7800F02FFE2846E2
:1010D000FFF7FCFBE6B2B04201D847B0F0BD80217B
:1010E000384600F009FD0028F9D0A957384689B2E2
:1010F00000F0FAFC0134EAE796000020000000202E
:10110000060000207B31000802000020003801406A
:10111000AD010020AC01002094000020040000205C
:10112000002313B5094C01210420019300F080FB3A
:10113000074B204601A9019300F057F94FF44041B5
:10114000204600F0A8F902B010BD00BF0008014021
:1011500000C00310F8B5FFF7C1FB00F0D3FC4FF45B
:10116000165000F009FD1D4800F0D8FD1C4B1D482D
:10117000196800F04DFDFFF7E1FBFFF791FCFFF769
:1011800073FDFFF79FFD4FF41650FFF7A5FEFFF725
:10119000C7FF01210020FFF757FC0121124D08462F
:1011A000FFF752FC00242E46104FFFF78DFCFFF78F
:1011B00049FEFFF741FF2B681B1B642B09D93B78C5
:1011C000012B03D1FFF7B8FD094B1880FFF75AFF39
:1011D00034680A2000F0B4FCE7E700BFF8310008EB
:1011E0001800002018320008A001002096000020FE
:1011F00094000020FEE7FEE7FEE7FEE7FEE770470B
:1012000070477047034B1A6812B11A68013A1A60A6
:10121000704700BFBC010020024A1368013313600D
:10122000FFF7F0BFA001002008B50121064800F03B
:10123000FBFB38B10121044800F001FC034A1368AC
:101240000133136008BD00BF00080040A00100206A
:10125000374B82B01A6842F001021A605968354A69
:101260000A405A601A6822F0847222F480321A60AE
:101270001A6822F480221A605A6822F4FE025A6028
:101280004FF41F029A600022009201921A6842F401
:1012900080321A601A6802F400320192009A013218
:1012A0000092019A1AB9009AB2F5A06FF2D11A68A9
:1012B00012F4003218BF01220192019A012A30D1A2
:1012C0001D4A116841F010011160116821F00301FD
:1012D0001160116841F0020111605A685A605A6841
:1012E0005A605A6842F480625A605A6822F47C124A
:1012F0005A605A6842F4E8125A601A6842F08072E2
:101300001A601A689201FCD55A6822F003025A60EA
:101310005A6842F002025A605A6802F00C02082A27
:10132000FAD14FF00062054B9A6002B0704700BFDF
:10133000001002400000FFF80020024000ED00E035
:101340001249134A4B6803F00C03082B0AD0114BC7
:1013500013604B681049C3F30313C95C1368CB4097
:10136000136070474B684868C3F38343C00303F1BD
:10137000020305D409480068C00604D5054803E007
:1013800048688003FAD506484343E1E7001002406D
:101390001800002000127A000800002000380240E7
:1013A00000093D00002103E00A4B5B584350043123
:1013B00009480A4B42189A42F6D3094A02E0002330
:1013C00042F8043B074B9A42F9D3FFF741FFFFF77E
:1013D000C1FE7047C03300080000002094000020C8
:1013E00094000020E0010020FEE72DE9F041CB78D9
:1013F0000E88DA0648BF8A7803F00F0548BF154308
:101400000A78D2B100214FF0010C4FF00F0E0268A4
:101410000CFA01F737EA06040BD18C000EFA04F837
:1014200022EA080205FA04F4282B42EA040224D135
:10143000476101310829EBD10260FF2E1BD9082436
:101440004FF0010C4FF00F0E41680CFA04F737EA29
:1014500006020CD1A200203A0EFA02F821EA080195
:1014600005FA02F2282B41EA02010AD14761013450
:10147000102CEAD14160BDE8F081482B08BF07611C
:10148000D7E7482B08BF0761F1E78368194214BF0B
:1014900001200020704701617047000008B50B4B28
:1014A000012198420AD14FF4001000F0D9F900212F
:1014B0004FF40010BDE8084000F0D2B94FF48000AE
:1014C00000F0CEF900214FF48000F3E70054004013
:1014D00070B586B00446868801A80D4600F060F914
:1014E000039A2E4926F03F06B2FBF1F13604360C82
:1014F00088B20643A6802388294E23F001031B04EB
:101500001B0C23802B68B34223D85B00B2FBF3F3A0
:101510009BB2042B38BF0423013080B22084A38304
:101520002388AA889BB243F001032380238869891A
:1015300023F4816323F002031B040A431B0C1343AF
:101540009BB22A892380AB8913439BB2238106B0C7
:1015500070BD4BF6FF70EE8886421BBF19204343D7
:1015600003EB4303B2FBF3F30BBFB2FBF3F39BB20A
:101570009BB243F48043C3F30B020AB943F0010367
:101580004FF496724A434FF47A71B2FBF1F2013292
:1015900092B243F400432284C1E700BF40420F00EF
:1015A000A0860100038821B19BB243F001030380B0
:1015B000704723F001031B041B0CF8E7038821B1DB
:1015C0009BB243F480730380704723F480731B0441
:1015D0001B0CF8E7038821B19BB243F4007303802E
:1015E000704723F400731B041B0CF8E7038821B138
:1015F0009BB243F480630380704723F480631B0431
:101600001B0CF8E701827047008AC0B2704722B114
:1016100041F0010189B20182704701F0FE01F9E752
:10162000838A008B9BB243EA00430B4023F07F4345
:101630005B1A58425841704770B50125017801F096
:101640001F039D40C3784C09C3B10F4BDA68437840
:10165000D243C2F30222C2F1040603FA06F68378EB
:101660000F2020FA02F213403343084A1B01DBB279
:10167000114481F8003342F8245070BD034B2034EC
:1016800043F82450F9E700BF00ED00E000E100E07E
:10169000044B04281A680CBF42F0040222F0040232
:1016A0001A60704710E000E00D4B1A6842F001022A
:1016B0001A6059680B4A0A405A601A6822F084720C
:1016C00022F480321A601A6822F480221A605A6862
:1016D00022F4FE025A604FF41F029A60704700BF66
:1016E000001002400000FFF80C4BB0F5803F1A6874
:1016F00022F480321A601A6822F480221A6003D021
:10170000B0F5802F05D070471A6842F480321A6015
:1017100070471A6842F4A022F9E700BF00100240A7
:10172000034A536823F47C130B430343536070470D
:1017300000100240014B1860704700BF6000424239
:10174000034A536823F0030303435360704700BF09
:1017500000100240024B586800F00C00704700BFB8
:1017600000100240034A536823F0F0030343536020
:10177000704700BF00100240034A536823F4E0633F
:1017800003435360704700BF00100240034A536890
:1017900023F4605343EAC0035360704700100240D3
:1017A0001D4A10B5536803F00C03082B1FD01B4BC8
:1017B000036053681A4CC3F30313E15C0368CB4026
:1017C00043605168C1F30221615C23FA01F1816039
:1017D0005168C1F3C221615CCB40C36052681149BA
:1017E000C2F381328A5CB3FBF2F3036110BD53682C
:1017F0005168C3F38343C90303F1020305D40A49C3
:101800000968CC0604D5054903E051688903FAD577
:1018100006494B43CCE700BF0010024000127A009B
:10182000200000201C0000200038024000093D007C
:10183000044B9A6911B110439861704722EA000085
:10184000FAE700BF00100240044BDA6911B11043FF
:10185000D861704722EA0000FAE700BF001002409A
:10186000044B1A6911B110431861704722EA000055
:10187000FAE700BF001002404209012A074B07D1D6
:101880001B6800F01F0023FA00F000F00100704711
:10189000022A0CBF1B6A5B6AF3E700BF001002401C
:1018A000124A038890429BB20AD0B0F1804F07D011
:1018B000A2F59432904203D002F58062904203D1A7
:1018C0004A8823F070031343CA8823F440739BB201
:1018D000134303808B8883850B880385034B9842D1
:1018E00004BF0B7A0386012383827047002C0140DA
:1018F000038C70B523F001031B041B0C0384038CC1
:101900008288048B0D8824F073042404240C4E88F0
:101910002C4323F002030D891B0435431B0C2B437E
:101920000C4D92B2A8429BB20ED14D8923F0080310
:101930002B438D8823F00403CE892B438D8922F419
:10194000407235432A4392B28280CA8804838286D9
:10195000038470BD002C0140038C70B523F48053C8
:101960001B041B0C0384038C8488828B0D8822F457
:10197000E6421204120C4E8842EA052223F4005378
:101980000D891B0435431B0C43EA0533094DA4B2F2
:10199000A84202BF8D8924F4804444EA851492B29F
:1019A00008BFA4B284808283CA889BB2A0F840207A
:1019B000038470BD002C0140038821B19BB243F029
:1019C00001030380704723F001031B041B0CF8E79D
:1019D00083899BB212B119438181704723EA0101C7
:1019E000FAE7038821B19BB243F08003038070477C
:1019F00023F080031B041B0CF8E7038B23F0080380
:101A00001B041B0C0B4303837047838B23F400637D
:101A10001B041B0C43EA01239BB28383704781861E
:101A20007047A0F840107047038A828911EA0300CA
:101A300092B203D00A4214BF012000207047C9436C
:101A400089B201827047000030B50D460446038A12
:101A50008A899BB2C98823F440530B43038283894C
:101A6000A98823F4B05323F00C031B041B0C0B4375
:101A7000298987B00B4369890B439BB28381838A91
:101A80009BB223F440731343838201A8FFF788FEBF
:101A9000DDE903230D498C4208BF1A46192353433D
:101AA0002A689200B3FBF2F36422B3FBF2F102FB6B
:101AB00011331B013233B3FBF2F303F00F0343EA9C
:101AC00001139BB2238107B030BD00BF0038014035
:101AD000838921B19BB243F400538381704723F47F
:101AE00000531B041B0CF8E7C1F308018180704709
:101AF0008088C0F3080070470388194214BF012092
:101B00000020704708B56FF00400FFF7C1FD084BD7
:101B1000084A1B68B3FBF2F3074ADBB21370C3EB4E
:101B2000431203EB8203054ADB00138008BD00BFAC
:101B30001800002000127A00C2010020C00100201D
:101B400000220B4B1B8858430A4B58609A601A6856
:101B500042F001021A601A6802F00112012AFAD05A
:101B60001A6822F001021A6000229A60704700BFD2
:101B7000C001002010E000E010B5012186B004464D
:101B800044F20400FFF754FE0C4B01A90C480193EA
:101B9000FFF72BFC00234FF400220294094C02A90A
:101BA0002046CDE90332ADF81430FFF74DFF012197
:101BB0002046FFF78DFF06B010BD00BF00020318DE
:101BC0000008014000380140F8B50E4614460025D3
:101BD000084FA54201DB2046F8BD40210548FFF72C
:101BE0008BFF0028F9D07157384689B2FFF77CFF88
:101BF0000135EEE7003801400A22002100F054B917
:101C000003460244934200D1704703F8011BF9E7F1
:101C10000FB40A4B13B51C6824B1A36913B920464D
:101C200000F02CFB05AB2046049AA168019300F05C
:101C300053FE02B0BDE8104004B0704730000020F1
:101C400070B50E46054618B183690BB900F016FB56
:101C5000AB69AC6813B9284600F010FB2C4B9C42D2
:101C600020D16C68636EDB0705D4A389980502D484
:101C7000A06D00F0A1FBA38919071DD52369DBB175
:101C8000013EA36816F8011F013BA36039BB002B7E
:101C900038DA22460A21284600F010F9013011D026
:101CA0000A2511E01B4B9C4201D1AC68DAE71A4BC4
:101CB0009C4208BFEC68D5E72146284600F050F961
:101CC0000028DDD04FF0FF35636EDA0705D4A38915
:101CD0009B0502D4A06D00F070FB284670BD002B60
:101CE00004DAA2699A4206DC0A2904D023685A1C45
:101CF00022601970C5E72246284600F0DFF801305F
:101D0000BFD1DFE70A2523685A1C22601D70DBE77C
:101D1000483300086833000828330008024B0146A6
:101D20001868FFF78DBF00BF300000200EB46FF0C1
:101D3000004100B59CB01DAB029006900791049144
:101D40000848094953F8042B0591006802A901933A
:101D500000F09AFC0022029B1A701CB05DF804EBA4
:101D600003B07047300000200802FFFFF0B50C7888
:101D700064B103461A7818465E1C0AB9104605E09D
:101D8000944208D10D4615F8012F02B9F0BD13F8A1
:101D9000017F9742F7D03346ECE70000012B2DE995
:101DA000F047864601D0242B06D900F047F91623C8
:101DB00003600020BDE8F0878C463A4E60461CF870
:101DC000014BA55D15F00805F8D12D2C33D14FF04E
:101DD00001089CF8004000F1020C002B5DD0102B94
:101DE0000CD1302C0AD19CF8000000F0DF005828FC
:101DF0004ED110239CF801400CF1020C002508F193
:101E00000047013FB7FBF3F9284603FB197AA4F119
:101E10003006092E18D83446A34224DD002D1FDBDE
:101E200081451DD301D1A2451ADB012500FB0340EA
:101E30001CF8014BEBE72B2C08BF9CF80040A84690
:101E400008BF00F1020CC8E7A4F14106192E01D821
:101E5000373CE1E7A4F16106192E04D8573CDBE7D3
:101E60004FF0FF35E4E7002D08DA22233846CEF89C
:101E70000030002A9ED00CF1FF3107E0B8F1000FCE
:101E800000D04042002A95D0002DF4D1116091E796
:101E90003024002BB2D10823B0E7302CA3D00A2382
:101EA000ACE700BF2832000813460A460146024844
:101EB0000068FFF773BF00BF30000020F8B50E4682
:101EC0001446054618B183690BB900F0D7F9214BC8
:101ED0009C422BD16C68A369A360A3891A072FD5F4
:101EE00023696BB323692068F6B2C01A6369374669
:101EF000834204DC2146284600F02CF930BBA3685D
:101F00000130013BA36023685A1C22601E70636984
:101F1000834204D0A389DB0706D50A2E04D12146CB
:101F2000284600F017F988B93846F8BD0A4B9C429C
:101F300001D1AC68CFE7094B9C4208BFEC68CAE707
:101F40002146284600F00CF80028CBD04FF0FF3790
:101F5000EAE700BF48330008683300082833000868
:101F6000324B70B51D6806460C4625B1AB6913B9F6
:101F7000284600F083F92E4B9C420FD16C68A38950
:101F8000B4F90C2019072CD4DD0611D409233360D1
:101F900042F040034FF0FF30A3813EE0254B9C42CE
:101FA00001D1AC68EBE7244B9C4208BFEC68E6E744
:101FB000580712D5616B41B104F14403994202D034
:101FC000304600F05FFA00236363A38923F0240303
:101FD000A3810023636023692360A38943F008037E
:101FE000A38123694BB9A38903F42073B3F5007F60
:101FF00003D02146304600F005FAA089B4F90C2040
:1020000010F001030AD00023A36063695B42A3615F
:10201000236943B910F08000BAD170BD810758BF61
:102020006369A360F4E70020F7E700BF30000020F9
:10203000483300086833000828330008014B18684B
:10204000704700BF300000208A892DE9F041054625
:1020500010070C4658D44B68002B05DC0B6C002B8A
:1020600002DC0020BDE8F081E66A002EF9D00023F2
:1020700012F480522F682B6032D0606DA3895A070A
:1020800005D56368C01A636B0BB1236CC01A0023BB
:102090000246E66A2846216AB047431CA38906D156
:1020A00029681D292CD82A4ACA40D60728D50022DB
:1020B00062602269D904226004D5421C01D12B68D8
:1020C00003B96065616B2F600029CAD004F1440335
:1020D000994202D0284600F0D5F900206063C1E79C
:1020E000216A01232846B047411CC7D12B68002B29
:1020F000C4D01D2B01D0162B01D12F60B1E7A389CD
:1021000043F04003A381ADE70F69002FA9D09307E7
:1021100018BF00230E6808BF4B69A6EB07080F60C5
:102120008B60B8F1000F9CDD43463A462846216A91
:10213000A66AB047002806DCA3894FF0FF3043F0C1
:102140004003A3818EE70744A8EB0008E9E700BF3E
:102150000100402038B50B6905460C4613B900252F
:10216000284638BD18B183690BB900F087F8144BC5
:102170009C421BD16C68B4F90C30002BEFD0626E1E
:10218000D00704D4990502D4A06D00F015F92846B3
:102190002146FFF759FF636E0546DA07E0D4A389AD
:1021A0009B05DDD4A06D00F008F9D9E7054B9C42F2
:1021B00001D1AC68DFE7044B9C4208BFEC68DAE76A
:1021C000483300086833000828330008002310B59E
:1021D0000446C0E90033C0E904338360818143666B
:1021E000C2818361194608225C30FFF709FD054B67
:1021F00024626362044BA362044BE362044B2363D7
:1022000010BD00BF852E0008A72E0008DF2E000895
:10221000032F0008014900F0AFB800BF55210008A6
:1022200070B568254A1E55430E4605F1740100F04D
:1022300075F9044640B10021C0E900160C30A060D9
:1022400005F16802FFF7DCFC204670BD014800F094
:10225000B3B800BFD8010020014800F0AEB800BFFD
:10226000D8010020014800F0A7B800BFD30100202A
:10227000014800F0A2B800BFD301002010B5044609
:10228000FFF7F0FFA3691BB1BDE81040FFF7F0BFF7
:10229000C4E912332365134B134A1B68A262A3429D
:1022A00008BF0123204608BFA36100F01FF860604B
:1022B000204600F01BF8A060204600F017F800222E
:1022C0000421E0606068FFF781FF01220921A06816
:1022D000FFF77CFF02221221E068FFF777FF01235E
:1022E000A361D1E78833000815220008F8B5074636
:1022F000FFF7ACFF1E4B1E68B36913B93046FFF7FA
:10230000BDFF4836D6E90134013B03D533680BB332
:102310003668F7E7B4F90C50D5B9164B04F15800FC
:10232000E360656600F047F8FFF796FF082229464C
:10233000C4E90155C4E904552560A56104F15C00B8
:10234000FFF75EFCC4E90D55C4E912552046F8BDFF
:102350006834D9E704213846FFF762FF044630604D
:102360000028D5D1FFF778FF0C233B60EEE700BFD4
:10237000883300080100FFFF2DE9F8430646884630
:10238000002700F14804D4E90195B9F1010905D508
:102390002468002CF7D13846BDE8F883AB89012BBF
:1023A00007D9B5F90E30013303D029463046C0476E
:1023B00007436835E9E770477047704770B50E46C8
:1023C000B1F90E10144600291D4696B007DA002315
:1023D0002B60B3891A0610D44FF480630EE06A466E
:1023E00000F0B6FD0028F2DB019A02F47042A2F57B
:1023F00000535A425A412A60EEE7402300202360EE
:1024000016B070BD8B8973B59D0706460C4607D57F
:1024100004F14703236023610123636102B070BDAF
:102420006A4601ABFFF7CAFF00990546304600F047
:1024300075F848B9B4F90C309A05EFD423F00303CA
:1024400043F00203A381E3E70D4BB362A38920604D
:1024500043F08003A381009B20616361019B5BB11A
:102460003046B4F90E1000F085FD28B1A38923F0A1
:10247000030343F00103A381A0890543A581CDE7B0
:102480001522000838B50546002943D051F8043C10
:102490000C1F002BB8BFE41800F0C4FD1E4A1368DF
:1024A000104633B9636014602846BDE8384000F038
:1024B000BFBDA3420AD921686218934201BF1A68BE
:1024C0005B685218226063600460EDE71A465B683F
:1024D0000BB1A342FAD911685018A0420BD1206861
:1024E0000144501883421160DED118685B680144D2
:1024F00011605360D8E702D90C232B60D4E7206821
:1025000021188B4201BF19685B680918216063605C
:102510005460C9E738BD00BFC4010020F8B5CD1C28
:1025200025F0030508350C2D38BF0C25002D064677
:1025300001DBA94203D90C2333600020F8BD00F071
:1025400071FD21490A6814469CB9204F3B6823B9A4
:102550002146304600F086FC38602946304600F0BF
:1025600081FC431C23D10C233046336000F060FD16
:10257000E3E723685B1B17D40B2B03D923601C44B0
:10258000256004E06368A2420CBF0B6053603046D4
:1025900000F04EFD04F10B00231D20F00700C21ACD
:1025A000CCD01B1AA350C9E722466468CCE7C41CF0
:1025B00024F00304A042E3D0211A304600F052FC7C
:1025C0000130DDD1CFE700BFC4010020C8010020E9
:1025D0002DE9F0478E6882469E420C4690461F4683
:1025E00038D88A8912F4906F32D02568096901338E
:1025F000A5EB010965694B4405EB450505EBD57570
:102600006D109D4238BF1D46530531D52946FFF751
:1026100085FF064650B90C234FF0FF30CAF8003052
:10262000A38943F04003A381BDE8F0874A462169AE
:1026300000F0D0FCA38923F4906343F08003A381CE
:1026400026614E4426603E466561A5EB0905A560FE
:10265000BE4200D93E4632464146206800F0C8FCE2
:10266000A36822689B1B32440020A3602260DBE742
:102670002A4600F0E3FC06460028E1D150462169D5
:10268000FFF700FFC7E700002DE9F04F98468B8960
:1026900007461B060D4614469DB00ED50B6963B95F
:1026A0004021FFF73BFF2860286120B90C233B60E5
:1026B0004FF0FF30D1E040236B61002309932023CA
:1026C0008DF8293030234FF00109CDF80C80DFF868
:1026D000A4818DF82A3023469A4613F8012B0AB1BB
:1026E000252AF9D1BAEB040B0BD05B4622462946CA
:1026F0003846FFF76DFF013000F0AA80099A5A446E
:1027000009929AF80030002B00F0A28000234FF0CD
:10271000FF32CDE905230AF1010A049307938DF8EE
:1027200053301A935446052214F8011B514800F007
:1027300043FC049AD8B9D00644BF20238DF8533007
:10274000110744BF2B238DF853309AF800302A2B01
:1027500015D0544600204FF00A0C079A214611F874
:10276000013B303B092B4ED9B0B1079214E0A0EBEE
:10277000080309FA03F31343A2460493D2E7039B29
:10278000191D1B680391002BBBBF5B4242F0020284
:1027900007930793B8BF049223782E2B0CD163784C
:1027A0002A2B35D1039B02341A1D1B680392002B80
:1027B000B8BF4FF0FF330593DFF8C8A0032250469F
:1027C000217800F0F9FB40B14023A0EB0A0003FAA6
:1027D00000F0049B01340343049314F8011B062208
:1027E00025488DF8281000F0E7FB002838D0234B4F
:1027F0001BBB039B073323F0070308330393099B99
:102800003344099367E70C4601200CFB0232A5E72D
:1028100000234FF00A0C194601340593204610F8A6
:10282000012B303A092A03D9002BC5D00591C3E703
:10283000044601230CFB0121F0E703AB00932A4679
:1028400038460F4B04A9AFF30080421C0646D6D190
:10285000AB895B063FF52CAF09981DB0BDE8F08F42
:1028600003AB00932A463846054B04A900F0D4F97F
:10287000EBE700BF8C33000896330008000000002F
:10288000D125000892330008936810B4013B002B57
:10289000936007DA9469A34201DB0A2902D110BCD4
:1028A000FFF70CBB1368581C10601970084610BC69
:1028B0007047F8B506460F461446D518AC4201D10C
:1028C000002007E03A46304614F8011BFFF7DCFF12
:1028D000431CF3D1F8BD00002DE9F04F0D4614461E
:1028E000984606469DB018B183690BB9FFF7C6FC40
:1028F000894B9D421BD175686B6ED90705D4AB8996
:102900009A0502D4A86DFFF757FDAB891B0701D5C7
:102910002B69EBB929463046FFF722FBC0B16B6E3D
:10292000DC070ED54FF0FF301DB0BDE8F08F7B4BBC
:102930009D4201D1B568DFE7794B9D4208BFF5683C
:10294000DAE7AB899805EDD4A86DFFF736FDE9E726
:102950000023099320238DF8293030234FF00109FB
:10296000CDF80C80DFF8BC818DF82A3023469A46DA
:1029700013F8012B0AB1252AF9D1BAEB040B0BD0BD
:102980005B46224629463046FFF793FF013000F0B0
:10299000AA80099A5A4409929AF80030002B00F054
:1029A000A28000234FF0FF32CDE905230AF1010A8E
:1029B000049307938DF853301A935446052214F864
:1029C000011B584800F0F8FA049AD8B9D10644BF60
:1029D00020238DF85330130744BF2B238DF8533039
:1029E0009AF800302A2B15D0544600204FF00A0CDC
:1029F000079A214611F8013B303B092B4ED9B0B163
:102A0000079214E0A0EB080309FA03F31343A2466C
:102A10000493D2E7039B191D1B680391002BBBBFD6
:102A20005B4242F0020207930793B8BF04922378F7
:102A30002E2B0CD163782A2B35D1039B02341A1D1F
:102A40001B680392002BB8BF4FF0FF330593DFF8EC
:102A5000E4A003225046217800F0AEFA40B14023B2
:102A6000A0EB0A0003FA00F0049B01340343049333
:102A700014F8011B06222C488DF8281000F09CFA4F
:102A800000283FD0294B1BBB039B073323F00703D0
:102A900008330393099B3B44099367E70C460120E5
:102AA0000CFB0232A5E700234FF00A0C1946013453
:102AB0000593204610F8012B303A092A03D9002B40
:102AC000C5D00591C3E7044601230CFB0121F0E7C3
:102AD00003AB00932A463046154B04A9AFF30080A0
:102AE0000746781CD6D16B6ED90705D4AB899A05F9
:102AF00002D4A86DFFF761FCAB895B063FF512AF0E
:102B0000099811E703AB00932A463046084B04A905
:102B100000F082F8E4E700BF48330008683300089B
:102B2000283300088C3300089633000800000000AA
:102B3000B3280008923300082DE9F047164699465D
:102B40008A680B6907469342B8BF1346336091F811
:102B500043200C46DDF820800AB10133336023683E
:102B6000990642BF336802333360256815F00605C5
:102B700006D104F1190AE36832689B1AAB4228DCDB
:102B800094F84320131E226818BF012392062DD407
:102B90004946384604F14302C047013020D023683B
:102BA000E56803F00603042B18BF002532684FF0D8
:102BB0000006A36808BFAD1A226908BF25EAE575BB
:102BC0009342C4BF9B1AED181A34B5421AD10020A3
:102BD00008E00123524649463846C047013003D138
:102BE0004FF0FF30BDE8F0870135C4E73020E11831
:102BF00081F843005A1C94F845102244023382F8AD
:102C00004310C5E70123224649463846C0470130F4
:102C1000E6D00136D9E700002DE9FF470C46277EB4
:102C20009146782F80469A460C9904F1430207D8C2
:102C3000622F0AD8002F00F0D980582F00F0A4800E
:102C400004F1420684F842703AE0A7F16303152BC1
:102C5000F6D801A050F823F0B12C0008C52C0008CC
:102C6000412C0008412C0008412C0008412C000890
:102C7000C52C0008412C0008412C0008412C0008FC
:102C8000412C0008D32D0008F52C0008B52D0008B4
:102C9000412C0008412C0008F52D0008412C0008AB
:102CA000F52C0008412C0008412C0008BD2D00081F
:102CB0000B6804F142061A1D1B680A6084F8423052
:102CC0000123A4E0256808682E0600F104030AD554
:102CD00005680B60002D03DA2D236D4284F8433024
:102CE0000A235E4819E015F0400F05680B6018BF15
:102CF0002DB2EFE70B682568181D0860280601D57E
:102D00001D6802E06906FBD51D886F2F0CBF0823E4
:102D10000A235248002184F843106668002EA8BF99
:102D20002168A660A4BF21F0040121600DB9002E26
:102D30004DD01646B5FBF3F103FB1157C75D06F8FE
:102D4000017D2F46BB420D46F4D9082B0BD12368D9
:102D5000DF0708D5236961689942DEBF302306F892
:102D6000013C06F1FF36921B22614B46214640464C
:102D7000CDF800A003AAFFF7DFFE01304CD14FF0E1
:102D8000FF3004B0BDE8F087344884F845700E6821
:102D9000236856F8045B1F060E6014D5D90744BF9C
:102DA00043F0200323601DB9236823F02003236030
:102DB0001023AFE7236843F02003236078232848DB
:102DC00084F84530E3E75E0648BFADB2E6E7164655
:102DD000BBE70B6826681D1D60690D6035061B6822
:102DE00001D5186002E07106FBD518800023164655
:102DF0002361BAE70B681A1D0A601E68002130467D
:102E0000626800F0D9F808B1801B606063682361D4
:102E1000002384F84330A8E73246494640462369F8
:102E2000D0470130ABD023689B0713D4E068039BE5
:102E30009842B8BF1846A4E70123324649464046A7
:102E4000D04701309BD00135E36803995B1AAB4250
:102E5000F2DCEBE7002504F11906F5E79D330008E5
:102E6000AE33000838B50023054D044608462B60F4
:102E700000F04CF9431C02D12B6803B1236038BD2C
:102E8000DC01002010B50C46B1F90E1000F0FCF882
:102E90000028ABBF636DA3891B1823F48053ACBF1C
:102EA0006365A38110BD2DE9F0411F468B8905465E
:102EB000DB050C46164605D502230022B1F90E109B
:102EC00000F068F8A389324623F48053A381284692
:102ED0003B46B4F90E10BDE8F04100F017B810B54C
:102EE0000C46B1F90E1000F055F8431CA38915BF2C
:102EF000606523F4805343F48053A38118BFA381FA
:102F000010BDB1F90E1000F013B8000038B504463A
:102F1000084611460022054D2A601A46FEF754FE67
:102F2000431C02D12B6803B1236038BDDC010020B3
:102F300038B50023054D044608462B6000F0BEF866
:102F4000431C02D12B6803B1236038BDDC01002093
:102F500038B50023064D0446084611462B6000F0A4
:102F6000B5F8431C02D12B6803B1236038BD00BF04
:102F7000DC01002038B50023054D044608462B60CF
:102F800000F0ACF8431C02D12B6803B1236038BDBC
:102F9000DC01002038B50446084611460022054DE4
:102FA0002A601A4600F0A2F8431C02D12B6803B134
:102FB000236038BDDC010020034610B5C9B20244CD
:102FC0009342184601D1002003E0047801338C427B
:102FD000F6D110BD0A44914200F1FF3300D1704791
:102FE00010B511F8014B914203F8014FF9D110BD12
:102FF000884210B501EB020402D98442234607D867
:10300000431EA14208D011F8012B03F8012FF8E765
:10301000014602448A4200D110BD13F8014D02F866
:10302000014DF7E70148FFF7C7B900BFD401002001
:103030000148FFF7C2B900BFD4010020F8B5074628
:1030400014460E4621B91146BDE8F840FFF766BAAE
:1030500022B9FFF717FA25462846F8BD00F026F8F2
:10306000A0420FD221463846FFF758FA05460028FD
:10307000F2D031462246FFF7ADFF31463846FFF722
:1030800001FAE9E73546E7E738B504460846114650
:103090000022054D2A601A4600F030F8431C02D188
:1030A0002B6803B1236038BDDC01002051F8043CDB
:1030B000181F002BBCBF0B58C01870475822024B7A
:1030C0004FF0FF301A607047DC0100205822024B9D
:1030D0004FF0FF301A607047DC0100205822024B8D
:1030E00000201A60704700BFDC0100205822024B0C
:1030F0004FF0FF301A607047DC0100205822024B6D
:103100004FF0FF301A607047DC010020044A054987
:103110001368002B08BF0B46184410601846704710
:10312000CC010020E001002022636D64223A22736A
:1031300065745F70776D2200227761726D223A00AC
:10314000227768697465223A0022636D64223A220C
:103150006175746F5F6C69676874220022656E61C7
:10316000626C65223A0022636D64223A226C6967C0
:1031700068745F73776974636822007B2270776D6F
:10318000223A7B227761726D223A25642C2277687D
:10319000697465223A25647D2C22616D6269656ED1
:1031A00074223A25642C22746F756368223A7B225C
:1031B0007761726D223A25642C22776869746522E2
:1031C0003A25647D2C22737769746368223A7B22E6
:1031D0007761726D223A25642C22776869746522C2
:1031E0003A25647D2C226175746F5F6C6967687421
:1031F000223A25647D0D0A0043483332463130338C
:1032000020D6C7C4DCB5C6B4F8BFD8D6C6CFB5CDB6
:10321000B32056322E300D00CFB5CDB3CAB1D6D3C0
:10322000A3BA25640D0A00002020202020202020A1
:103230002028282828282020202020202020202066
:103240002020202020202020881010101010101086
:1032500010101010101010100404040404040404CE
:10326000040410101010101010414141414141015F
:10327000010101010101010101010101010101013E
:10328000010101101010101010424242424242024D
:10329000020202020202020202020202020202020E
:1032A00002020210101010200000000000000000B8
:1032B000000000000000000000000000000000000E
:1032C00000000000000000000000000000000000FE
:1032D00000000000000000000000000000000000EE
:1032E00000000000000000000000000000000000DE
:1032F00000000000000000000000000000000000CE
:1033000000000000000000000000000000000000BD
:1033100000000000000000000000000000000000AD
:10332000000000000000000000000000000000009D
:10333000000000000000000000000000000000008D
:10334000000000000000000000000000000000007D
:10335000000000000000000000000000000000006D
:10336000000000000000000000000000000000005D
:10337000000000000000000000000000000000004D
:10338000000000000000000034000020232D302B3E
:103390002000686C4C006566674546470030313256
:1033A00033343536373839414243444546003031AD
:1033B000323334353637383961626364656600000C
:1033C00003030101030301010000000000000000ED
:1033D000010203040607080900A24A0402040608C1
:1033E00000000000010203040102030406070809AB
:1033F0003400002000000000483300086833000853
:103400002833000800000000000000000000000059
:1034100000000000000000000000000000000000AC
:10342000000000000000000000000000000000009C
:10343000000000000000000000000000000000008C
:10344000000000000000000000000000000000007C
:043450000000000078
:04000005080013A537
:00000001FF
