:020000040800F2
:1000000000280020B51700085D1500085F150008DE
:100010006115000863150008651500080000000060
:10002000000000000000000000000000671500084C
:1000300069150008000000006B1500088115000814
:10004000F9170008F9170008F9170008F917000850
:10005000F9170008F9170008F9170008F917000840
:10006000F9170008F9170008F9170008F917000830
:10007000F9170008F9170008F9170008F917000820
:10008000F9170008F9170008F9170008F917000810
:10009000F9170008F9170008F9170008F917000800
:1000A000F9170008F9170008F9170008F9170008F0
:1000B000F9170008B915000891150008F91700088C
:1000C000F9170008F9170008F9170008F9170008D0
:1000D000F9170008F5140008F9170008F9170008C7
:1000E000F9170008F9170008F9170008F9170008B0
:1000F00081F0004102E000BF83F0004330B54FEAD9
:1001000041044FEA430594EA050F08BF90EA020F45
:100110001FBF54EA000C55EA020C7FEA645C7FEAD8
:10012000655C00F0E2804FEA5454D4EB5555B8BFFB
:100130006D420CDD2C4480EA020281EA030382EA6C
:10014000000083EA010180EA020281EA0303362DFE
:1001500088BF30BD11F0004F4FEA01314FF4801CD1
:100160004CEA113102D0404261EB410113F0004FE3
:100170004FEA03334CEA133302D0524263EB43039A
:1001800094EA050F00F0A780A4F10104D5F1200E38
:100190000DDB02FA0EFC22FA05F2801841F1000193
:1001A00003FA0EF2801843FA05F359410EE0A5F167
:1001B00020050EF1200E012A03FA0EFC28BF4CF098
:1001C000020C43FA05F3C01851EBE37101F000454E
:1001D00007D54FF0000EDCF1000C7EEB00006EEB5B
:1001E0000101B1F5801F1BD3B1F5001F0CD34908E5
:1001F0005FEA30004FEA3C0C04F101044FEA44523C
:1002000012F5800F80F09A80BCF1004F08BF5FEAC2
:10021000500C50F1000041EB045141EA050130BDA2
:100220005FEA4C0C404141EB0101013C28BFB1F5B4
:10023000801FE9D291F0000F04BF01460020B1FAFF
:1002400081F308BF2033A3F10B03B3F120020CDAD2
:100250000C3208DD02F1140CC2F10C0201FA0CF0B0
:1002600021FA02F10CE002F11402D8BFC2F1200C15
:1002700001FA02F120FA0CFCDCBF41EA0C019040CB
:10028000E41AA2BF01EB0451294330BD6FEA040414
:100290001F3C1CDA0C340EDC04F11404C4F12002FF
:1002A00020FA04F001FA02F340EA030021FA04F311
:1002B00045EA030130BDC4F10C04C4F1200220FA68
:1002C00002F001FA04F340EA0300294630BD21FAA6
:1002D00004F0294630BD94F0000F83F4801306BF6C
:1002E00081F480110134013D4EE77FEA645C18BF60
:1002F0007FEA655C29D094EA050F08BF90EA020FF7
:1003000005D054EA000C04BF1946104630BD91EAEE
:10031000030F1EBF0021002030BD5FEA545C05D1F1
:100320004000494128BF41F0004130BD14F5800430
:100330003CBF01F5801130BD01F0004545F0FE41A4
:1003400041F470014FF0000030BD7FEA645C1ABFD9
:10035000194610467FEA655C1CBF0B46024650EA10
:10036000013406BF52EA033591EA030F41F400213C
:1003700030BD00BF90F0000F04BF0021704730B5C2
:100380004FF4806404F132044FF000054FF0000197
:1003900050E700BF90F0000F04BF0021704730B558
:1003A0004FF4806404F1320410F0004548BF40422D
:1003B0004FF000013EE700BF42004FEAE2014FEA82
:1003C00031014FEA02701FBF12F07F4393F07F4F5D
:1003D00081F06051704732F07F4208BF704793F060
:1003E0007F4F04BF41F40021704730B54FF4607473
:1003F00001F0004521F000411CE700BF50EA010276
:1004000008BF704730B54FF000050AE050EA01021E
:1004100008BF704730B511F0004502D5404261EB8E
:1004200041014FF4806404F132045FEA915C3FF4CF
:10043000D8AE4FF003025FEADC0C18BF03325FEA6C
:10044000DC0C18BF033202EBDC02C2F1200300FA1D
:1004500003FC20FA02F001FA03FE40EA0E0021FA42
:1004600002F11444BDE600BF70B54FF0FF0C4CF430
:10047000E06C1CEA11541DBF1CEA135594EA0C0FE2
:1004800095EA0C0F00F0DEF82C4481EA030621EA1D
:100490004C5123EA4C5350EA013518BF52EA033558
:1004A00041F4801143F4801338D0A0FB02CE4FF00A
:1004B0000005E1FB02E506F00042E0FB03E54FF03A
:1004C0000006E1FB03569CF0000F18BF4EF0010E32
:1004D000A4F1FF04B6F5007F64F5407404D25FEA2E
:1004E0004E0E6D4146EB060642EAC62141EA5551E1
:1004F0004FEAC52040EA5E504FEACE2EB4F1FD0C23
:1005000088BFBCF5E06F1ED8BEF1004F08BF5FEAA0
:10051000500E50F1000041EB045170BD06F0004652
:1005200046EA010140EA020081EA0301B4EB5C04FF
:10053000C2BFD4EB0C0541EA045170BD41F48011F7
:100540004FF0000E013C00F3AB8014F1360FDEBF1C
:10055000002001F0004170BDC4F10004203C35DAF8
:100560000C341BDC04F11404C4F1200500FA05F37B
:1005700020FA04F001FA05F240EA020001F000421C
:1005800021F0004110EBD37021FA04F642EB060192
:100590005EEA430E08BF20EAD37070BDC4F10C04BC
:1005A000C4F1200500FA04F320FA05F001FA04F280
:1005B00040EA020001F0004110EBD37041F100016C
:1005C0005EEA430E08BF20EAD37070BDC4F1200577
:1005D00000FA05F24EEA020E20FA04F301FA05F2DF
:1005E00043EA020321FA04F001F0004121FA04F287
:1005F00020EA020000EBD3705EEA430E08BF20EA57
:10060000D37070BD94F0000F0FD101F00046400090
:1006100041EB010111F4801F08BF013CF7D041EA12
:10062000060195F0000F18BF704703F00046520016
:1006300043EB030313F4801F08BF013DF7D043EAE7
:100640000603704794EA0C0F0CEA135518BF95EA9D
:100650000C0F0CD050EA410618BF52EA4306D1D124
:1006600081EA030101F000414FF0000070BD50EA43
:10067000410606BF1046194652EA430619D094EACD
:100680000C0F02D150EA013613D195EA0C0F05D1B7
:1006900052EA03361CBF104619460AD181EA03010B
:1006A00001F0004141F0FE4141F470014FF00000C3
:1006B00070BD41F0FE4141F4780170BD70B54FF05E
:1006C000FF0C4CF4E06C1CEA11541DBF1CEA1355DE
:1006D00094EA0C0F95EA0C0F00F0A7F8A4EB0504C0
:1006E00081EA030E52EA03354FEA013100F08880B7
:1006F0004FEA03334FF0805545EA131343EA126380
:100700004FEA022245EA111545EA10654FEA002634
:100710000EF000419D4208BF964244F1FD0404F5ED
:10072000407402D25B084FEA3202B61A65EB030549
:100730005B084FEA32024FF480104FF4002CB6EB06
:10074000020E75EB030E22BFB61A754640EA0C0086
:100750005B084FEA3202B6EB020E75EB030E22BFC6
:10076000B61A754640EA5C005B084FEA3202B6EB07
:10077000020E75EB030E22BFB61A754640EA9C00C6
:100780005B084FEA3202B6EB020E75EB030E22BF96
:10079000B61A754640EADC0055EA060E18D04FEA54
:1007A000051545EA16754FEA06164FEAC30343EAF4
:1007B00052734FEAC2025FEA1C1CC0D111F4801FC1
:1007C0000BD141EA00014FF000004FF0004CB6E7BA
:1007D00011F4801F04BF01430020B4F1FD0C88BF59
:1007E000BCF5E06F3FF6AFAEB5EB030C04BFB6EB64
:1007F000020C5FEA500C50F1000041EB045170BD57
:100800000EF0004E4EEA113114EB5C04C2BFD4EB83
:100810000C0541EA045170BD41F480114FF0000E07
:10082000013C90E645EA060E8DE60CEA135594EA83
:100830000C0F08BF95EA0C0F3FF43BAF94EA0C0F86
:100840000AD150EA01347FF434AF95EA0C0F7FF4FB
:1008500025AF104619462CE795EA0C0F06D152EA4F
:1008600003353FF4FDAE1046194622E750EA410633
:1008700018BF52EA43067FF4C5AE50EA41047FF444
:100880000DAF52EA43057FF4EBAE12E74A0011D2F6
:1008900012F5001211D20DD56FF47873B3EB6252DA
:1008A0000ED44FEAC12343F0004343EA505323FAE6
:1008B00002F070474FF00000704750EA013002D15B
:1008C0004FF0FF3070474FF000007047034613F8B9
:1008D000012B002AFBD1181A0138704707B5044BC9
:1008E000044801A9019300F088FF03B05DF804FB00
:1008F00080000314000C014007B5044B044801A913
:10090000019300F07AFF03B05DF804FB8000034818
:10091000000C0140322001F0C3BA000010B50C4CAD
:10092000FFF7DCFF2046802100F0BDFF204640217C
:1009300000F0B9FFFFF7EEFF2046802100F0B5FF81
:10094000FFF7E8FF2046BDE81040402100F0ADBFB2
:10095000000C014070B504460825FFF7BFFF104E9C
:1009600023064FF08001304616D500F09CFFFFF7BC
:10097000D1FF4021304600F096FF013DFFF7CAFF4E
:100980004021304600F091FF6400FFF7C3FF15F0EF
:10099000FF05E4B2E4D170BD00F087FFE7E700BFD8
:1009A000000C014038B50D4DFFF7A6FFFFF7B2FF71
:1009B0002846402100F077FFFFF7ACFF8021284652
:1009C00000F06BFF04464021284600F06EFFFFF761
:1009D00085FF201E18BF012038BD00BF000C01405C
:1009E00010B50A4CFFF77AFF2046802100F05DFF2A
:1009F0002046402100F057FFFFF78CFF2046802162
:100A000000F051FFBDE81040FFF784BF000C01402B
:100A1000F8B506460825FFF76FFF00241A4F40215E
:100A2000384600F040FF6400FFF774FF802138462D
:100A3000E4B200F032FF08B144F00104402138462E
:100A4000013D00F032FFFFF765FF15F0FF05E6D12D
:100A5000FFF744FF80210C489EB100F026FFFFF70E
:100A600059FF4021084800F01EFFFFF753FF4021C7
:100A7000054800F01AFF8021034800F014FF2046CB
:100A8000F8BD00F010FFEAE7000C014010B5044685
:100A9000FFF744FF0A4B1878FFF75CFFFFF782FF70
:100AA00018B1FFF79DFF002010BD2046FFF752FF51
:100AB000FFF778FF0028F4D1FFF792FF0120F3E75A
:100AC0000000002008B5FFF729FF4620FFF742FF8E
:100AD000FFF768FF68B1FFF783FFFFF71FFFB8203C
:100AE000FFF738FFFFF75EFF50B1FFF779FF0020F7
:100AF00008BDFFF775FF4622044B01201A70F7E787
:100B0000FFF76EFFB822014BF7E700BF000000209F
:100B100008B500F005FF4FF4803000F021FF3120D0
:100B200000F0F2FF0028FAD04FF480304FF4E011CB
:100B300000F032FF012000F039FF392000F0E4FF1F
:100B40000028FAD0002000F049FF4FF4806000F048
:100B50004FFF002000F056FF022000F02DFF00F0B4
:100B600035FF0828FBD1BDE8084000F0F1BD0000CA
:100B700070B5002410268AB03246214606A8CDE979
:100B800003440194ADF8144001F006FA012103205A
:100B9000354D029400F094FF0121052000F084FF00
:100BA000324B284601A9019300F027FE304B28461E
:100BB00001A9019300F021FE3146284600F075FEA0
:100BC000032640F2077303A94FF08040CDE9036389
:100BD00000F0E6FF274B06A9069335234FF080402F
:100BE000A5F58235ADF81E30ADF8204001F034F89F
:100BF00008214FF0804001F080F8284600F098FF6F
:100C000063234722284603A9CDE9032300F0C8FF48
:100C1000284606A90694ADF81E40ADF8204000F025
:100C2000E7FF3146284601F082F8012228461146A6
:100C300001F04EF801220221284601F049F80E4B3E
:100C400002A8029300F034FE01214FF0804001F031
:100C500048F801214FF0804001F02EF8012128468C
:100C600001F02AF80AB070BD00080140080003181E
:100C700010000310600001001D020201642928BF5A
:100C80006421032910B50C4638BF03240C280DD16C
:100C900040F2077164236143B1FBF3F14FF08040F0
:100CA00089B201F036F8044B1C7010BD0028FCD14D
:100CB000024B1C70024BF7E70200002001000020ED
:100CC00006000020032810B50C46014638BF03215A
:100CD000642928BF6421032C38BF0324642C28BF57
:100CE00064240A4B19700A4B1C700A4B1B7813B111
:100CF0000C20FFF7C3FF084B1B782BB12146BDE842
:100D000010400020FFF7BABF10BD00BF0300002055
:100D10000700002004000020080000200B4670B9E6
:100D20000F4A11700F4A31B90F4B4FF080401B78BA
:100D3000137000F0EEBF0C201178FFF79FBF0B4A35
:100D400011700B4A41B90B490B48097811700B4AD5
:100D50001021137000F0A9BD00201178EDE700BF4D
:100D600004000020030000200200002008000020F2
:100D700007000020060000200008014001000020BC
:100D8000002307B501210820019300F08DFE044BDC
:100D9000044801A9019300F030FD03B05DF804FBA5
:100DA00000C00348000C014038B54FF4804156485C
:100DB00000F073FD0128554D47D1554B55491A6830
:100DC0002870B2B909681960534B1A704FF400418A
:100DD0004D4800F062FD0128504D7CD1504B4D49EB
:100DE0001A682870002A49D1096819604D4B1A7099
:100DF00038BD0B689B1AB3F5FA7FE7D34A4B0A68F4
:100E00001C68121B312A1A46E0D9434D474C2B78F7
:100E10002BB923782870B3FA83F35B0923700B682E
:100E20000C201360424B22781978012A0CBF013143
:100E300001F1FF31C9B2032938BF0321642928BF5A
:100E400064211970FFF71AFFC0E72B78012BBDD181
:100E5000304B2F4C1A682168521AB2F5FA7F07D22C
:100E6000344B00201978B1FA81F14909FFF756FF98
:100E70000023294A2B7023601370A7E70B689B1A85
:100E8000B3F5FA7FB4D32C4B0A681C68121B312AC5
:100E90001A46ADD9234D294C2B782BB923782870CD
:100EA000B3FA83F35B0923700B6800201360244BB3
:100EB00022781978012A0CBF013101F1FF31C9B242
:100EC000032938BF0321642928BF64211970BDE8B4
:100ED0003840FFF7D3BE2878012889D10D4B104C3C
:100EE0001A682168521AB2F5FA7F06D2154B1978A2
:100EF000B1FA81F14909FFF711FF0023094A2B706C
:100F00002360137074E700BF000C0140B0010020A3
:100F1000C0020020A4010020BC020020B10100207A
:100F2000C8020020C4020020A80100200500002003
:100F30000200002004000020AC0100200900002075
:100F400006000020080000201FB500230121042016
:100F5000CDE90133ADF80C30009300F0B1FD092369
:100F600041F61F420D4C01A92046CDE9012300F0B6
:100F700017FE2046012100F0DAFE0122204611462C
:100F800000F0A6FE0121204600F096FE044B6846C4
:100F9000009300F08DFC04B010BD00BF00080040BD
:100FA0001E010101002313B50F4C012108200193FC
:100FB00000F07AFD0D4B204601A9019300F01DFCC5
:100FC000FFF78CFC2046402100F06DFC204680217C
:100FD00000F069FCFFF79EFC054B0648196800F01D
:100FE000E3FF02B010BD00BF000C0140400003143D
:100FF000A4010020643D000873B5FFF763FD20B92C
:10100000274B1C88204602B070BD0120FFF73EFD33
:101010000028F5D00A2000F05FFF0720FFF736FD1B
:101020000028EDD00A2000F057FF1020FFF72EFD1A
:101030000028E5D0C82000F04FFFFFF76FFC194BE8
:10104000187840F00100FFF785FCFFF7ABFC044681
:1010500010B1FFF7C5FCD3E70120FFF7D9FC054627
:101060002046FFF7D5FC0446FFF7BAFC44EA05200A
:10107000C0F30725C6B280B2FFF78CF94FF03332C8
:10108000094BFFF71BFBFFF701FC084B84B2196803
:101090002A4633460094064800F086FFB2E700BFB8
:1010A00098000020000000203333F33FA40100200B
:1010B000843D000870B51C4B1B78002B32D01B4BB5
:1010C0001A781B4B1B7813432CD11A4E1A4D3368D8
:1010D0002A689B1AB3F5FA7F24D9FFF78DFFB0F584
:1010E0007A7F88BF4FF47A724FF00A01134B94BF96
:1010F00018801A801C88124BB4FBF1F41B78C4F1E1
:101100006404012BE4B203D121460C20FFF7B6FDA5
:101110000C4B1B78012B03D121460020FFF7AEFDBD
:1011200033682B6070BD00BF9A000020B001002022
:10113000B1010020A40100209C00002098000020A4
:10114000040000200800002070B5002486B01022A2
:101150000546214602A81C4E009400F01DFF012107
:1011600044F20400019400F09FFC184B694630469D
:10117000009300F042FB4FF48063ADF8003004238D
:10118000694630468DF8033000F037FB4FF44023BA
:10119000CDE90254ADF814400D4C02A92046049349
:1011A00000F0CAFD012240F22551204600F014FE55
:1011B000084B01A8019300F07BFB0121204600F0C1
:1011C000FFFD06B070BD00BF00080140000203181B
:1011D000003801402500000173B53449044601F090
:1011E00012F8D8B1324B204632491E7801F00BF884
:1011F00078B9314B1D782046304901F004F818B118
:10120000083000F0C5FEC6B231462846FFF75AFD49
:1012100014E0073000F0BCFEC5B2ECE720462849D8
:1012200000F0F1FF054658B12046264900F0EBFFDB
:1012300020B1093000F0ACFE234B187002B070BD35
:101240002046224900F0DFFFC8B12046194900F0CE
:10125000DAFF30B1073000F09BFEC1B22846FFF73D
:101260005DFD2046154900F0CEFF0028E6D008308D
:1012700000F08EFEC1B20120FFF750FDDEE7042230
:101280002046134900F0ADFF0028D7D1CDE900007A
:101290006A46104901AB201D00F034FF0228CDD171
:1012A0009DF804109DF80000B0E700BFB03D0008B5
:1012B00007000020C03D000803000020C83D0008D2
:1012C000D13D0008E43D00089A000020EE3D0008F2
:1012D000033E0008083E000870B5164D164C174A2C
:1012E0002988138889B29BB2994200D170BD1388B6
:1012F00013499BB2C85C13880D2803F10103DBB2CC
:101300001380C1B2237801D00A2908D1002BE6D07E
:1013100000260C48C654FFF75FFF2670DFE7FF2B5F
:101320000FBF00235A1C2270064A0CBF2370D154F1
:10133000D5E700BFB8020020A0000020BA020020BC
:10134000B8010020A1000020F0B50024C7B0FC22A5
:10135000214607A8069400F01FFE1C4B1C4A1B6880
:10136000126806AD9B1AF92B20D91A4B1A4A1B7822
:1013700028460593194B1A491B781A4F04931A4BA8
:101380001B780393194B1B780293194B1B7801931D
:10139000184B1B880093184B12781B7800F092FEB4
:1013A0002846FFF793FAE6B2B04201D847B0F0BD45
:1013B0008021384600F030FD0028F9D0A957384682
:1013C00089B200F021FD0134EAE700BFA40100204A
:1013D000B40100209A000020020000200800002034
:1013E0000E3E00080038014004000020B10100203A
:1013F000B00100209800002006000020002313B553
:10140000094C01210420019300F04EFB074B2046BC
:1014100001A9019300F0F1F94FF44041204600F09A
:1014200042FA02B010BD00BF0008014000C0031026
:10143000F8B5FFF76DFB00F015FD4FF4165000F006
:1014400067FD234800F036FE224B2348196800F060
:10145000ABFDFFF78DFBFFF793FCFFF775FDFFF783
:10146000A1FDFFF72FFB1D4C216850BB1C4800F06D
:101470009BFD4FF41650FFF767FEFFF7BFFF0121FA
:101480000020FFF74BFC01210846FFF747FC002531
:10149000144E154FFFF788FCFFF70CFEFFF71CFFFB
:1014A00023685B1B642B08D93378012B02D1FFF72B
:1014B000A3FD3880FFF748FF25680A2000F00CFDE7
:1014C000E8E70A4B0A481A78520800F06DFDD0E7A9
:1014D0008B3E00081C000020AB3E0008A401002049
:1014E000BA3E00089A00002098000020000000206A
:1014F000E03E000838B540F22551124800F092FC59
:10150000A8B1104800F084FC0F4B104C1A68104B27
:10151000104D1A60104AC0B2138821880133DBB223
:1015200089B2994204D0118889B26854138038BDB9
:1015300023880133DBB2238013889BB2E8541180E7
:10154000F5E700BF00380140A4010020BA020020E6
:10155000B4010020B8010020B8020020FEE7FEE739
:10156000FEE7FEE7FEE7704770477047034B1A68D7
:1015700012B11A68013A1A60704700BFCC0200200D
:10158000024A136801331360FFF7F0BFA401002083
:1015900008B50121064800F0BFFB38B1012104481D
:1015A00000F0C5FB034A13680133136008BD00BF98
:1015B00000080040A401002038B5264D012128462E
:1015C00000F0AAFBA8B10121284600F0B0FB0221DF
:1015D000284600F0ACFB204B1B7803F0FF04BBB99E
:1015E00010211E4800F061F900220221284600F077
:1015F0006FFB0221174800F08FFB48B3022115480A
:1016000000F095FBBDE838401021144800F04DB9BA
:10161000632C04D91021114800F045F9E4E7A98DA5
:101620000E4889B24A1C92B254436422B4FBF2F4CD
:10163000A4B2012C38BF01248C4228BF0C461021D3
:1016400000F031F92146284600F061FB0122CCE789
:1016500038BD00BF00040040010000200008014028
:10166000374B82B01A6842F001021A605968354A55
:101670000A405A601A6822F0847222F480321A609A
:101680001A6822F480221A605A6822F4FE025A6014
:101690004FF41F029A600022009201921A6842F4ED
:1016A00080321A601A6802F400320192009A013204
:1016B0000092019A1AB9009AB2F5A06FF2D11A6895
:1016C00012F4003218BF01220192019A012A30D18E
:1016D0001D4A116841F010011160116821F00301E9
:1016E0001160116841F0020111605A685A605A682D
:1016F0005A605A6842F480625A605A6822F47C1236
:101700005A605A6842F4E8125A601A6842F08072CD
:101710001A601A689201FCD55A6822F003025A60D6
:101720005A6842F002025A605A6802F00C02082A13
:10173000FAD14FF00062054B9A6002B0704700BFCB
:10174000001002400000FFF80020024000ED00E021
:101750001249134A4B6803F00C03082B0AD0114BB3
:1017600013604B681049C3F30313C95C1368CB4083
:10177000136070474B684868C3F38343C00303F1A9
:10178000020305D409480068C00604D5054803E0F3
:1017900048688003FAD506484343E1E70010024059
:1017A0001C00002000127A000A00002000380240CD
:1017B00000093D00002103E00A4B5B58435004310F
:1017C00009480A4B42189A42F6D3094A02E000231C
:1017D00042F8043B074B9A42F9D3FFF741FFFFF76A
:1017E00027FE7047C040000800000020980000203D
:1017F00098000020F0020020FEE72DE9F041CB78B0
:101800000E88DA0648BF8A7803F00F0548BF1543F3
:101810000A78D2B100214FF0010C4FF00F0E026890
:101820000CFA01F737EA06040BD18C000EFA04F823
:1018300022EA080205FA04F4282B42EA040224D121
:10184000476101310829EBD10260FF2E1BD9082422
:101850004FF0010C4FF00F0E41680CFA04F737EA15
:1018600006020CD1A200203A0EFA02F821EA080181
:1018700005FA02F2282B41EA02010AD1476101343C
:10188000102CEAD14160BDE8F081482B08BF076108
:10189000D7E7482B08BF0761F1E78368194214BFF7
:1018A00001200020704701617047416170470000CE
:1018B00070B50125017801F01F039D40C3784C09E4
:1018C000C3B10F4BDA684378D243C2F30222C2F1AC
:1018D000040603FA06F683780F2020FA02F213407A
:1018E0003343084A1B01DBB2114481F8003342F84C
:1018F000245070BD034B203443F82450F9E700BF57
:1019000000ED00E000E100E0044B04281A680CBF81
:1019100042F0040222F004021A60704710E000E076
:101920000D4B1A6842F001021A6059680B4A0A40CE
:101930005A601A6822F0847222F480321A601A689F
:1019400022F480221A605A6822F4FE025A604FF490
:101950001F029A60704700BF001002400000FFF8AD
:101960000C4BB0F5803F1A6822F480321A601A6876
:1019700022F480221A6003D0B0F5802F05D0704782
:101980001A6842F480321A6070471A6842F4A02242
:10199000F9E700BF00100240034A536823F47C13A8
:1019A0000B4303435360704700100240014B186023
:1019B000704700BF60004242034A536823F00303AC
:1019C00003435360704700BF00100240024B586849
:1019D00000F00C00704700BF00100240034A53683B
:1019E00023F0F00303435360704700BF0010024030
:1019F000034A536823F4E06303435360704700BF16
:101A000000100240034A536823F4605343EAC003C2
:101A100053607047001002401D4A10B5536803F030
:101A20000C03082B1FD01B4B036053681A4CC3F3E5
:101A30000313E15C0368CB4043605168C1F30221AA
:101A4000615C23FA01F181605168C1F3C221615CDC
:101A5000CB40C36052681149C2F381328A5CB3FB48
:101A6000F2F3036110BD53685168C3F38343C903A4
:101A700003F1020305D40A490968CC0604D50549D7
:101A800003E051688903FAD506494B43CCE700BF10
:101A90000010024000127A002400002020000020E4
:101AA0000038024000093D00044B9A6911B110430F
:101AB0009861704722EA0000FAE700BF0010024078
:101AC000044BDA6911B11043D861704722EA000073
:101AD000FAE700BF00100240044BDA6811B110436E
:101AE000D860704722EA0000FAE700BF0010024009
:101AF000044B1A6911B110431861704722EA0000C3
:101B0000FAE700BF001002404209012A074B07D143
:101B10001B6800F01F0023FA00F000F0010070477E
:101B2000022A0CBF1B6A5B6AF3E700BF0010024089
:101B300008B5184B98420BD101214FF40060FFF714
:101B4000CBFFBDE8084000214FF40060FFF7C4BFA1
:101B5000B0F1804F09D101210846FFF7C9FF0021EC
:101B60000120BDE80840FFF7C3BF0B4B984206D1E8
:101B700001210220FFF7BCFF00210220F1E7074B03
:101B8000984206D101210420FFF7B2FF0021042072
:101B9000E7E708BD002C01400004004000080040B9
:101BA000124A038890429BB20AD0B0F1804F07D00E
:101BB000A2F59432904203D002F58062904203D1A4
:101BC0004A8823F070031343CA8823F440739BB2FE
:101BD000134303808B8883850B880385034B9842CE
:101BE00004BF0B7A0386012383827047002C0140D7
:101BF000038C70B523F001031B041B0C0384038CBE
:101C00008288048B0D8824F073042404240C4E88ED
:101C10002C4323F002030D891B0435431B0C2B437B
:101C20000C4D92B2A8429BB20ED14D8923F008030D
:101C30002B438D8823F00403CE892B438D8922F416
:101C4000407235432A4392B28280CA8804838286D6
:101C5000038470BD002C0140038C70B523F48053C5
:101C60001B041B0C0384038C8488828B0D8822F454
:101C7000E6421204120C4E8842EA052223F4005375
:101C80000D891B0435431B0C43EA0533094DA4B2EF
:101C9000A84202BF8D8924F4804444EA851492B29C
:101CA00008BFA4B284808283CA889BB2A0F8402077
:101CB000038470BD002C0140038821B19BB243F026
:101CC00001030380704723F001031B041B0CF8E79A
:101CD00083899BB212B119438181704723EA0101C4
:101CE000FAE7038821B19BB243F080030380704779
:101CF00023F080031B041B0CF8E7838B23F40063A1
:101D00001B041B0C43EA01239BB28383704781862B
:101D10007047A0F840107047038A828911EA0300D7
:101D200092B203D00A4214BF012000207047C94379
:101D300089B201827047000030B50D460446038A1F
:101D40008A899BB2C98823F440530B430382838959
:101D5000A98823F4B05323F00C031B041B0C0B4382
:101D6000298987B00B4369890B439BB28381838A9E
:101D70009BB223F440731343838201A8FFF74CFE08
:101D8000DDE903230D498C4208BF1A46192353434A
:101D90002A689200B3FBF2F36422B3FBF2F102FB78
:101DA00011331B013233B3FBF2F303F00F0343EAA9
:101DB00001139BB2238107B030BD00BF0038014042
:101DC000838921B19BB243F400538381704723F48C
:101DD00000531B041B0CF8E7012310B5C1F3421498
:101DE0009C4201F01F0103FA01F105D10C30036898
:101DF0003AB11943016010BD022C0CBF10301430F1
:101E0000F5E723EA0101F5E7C1F308018180704796
:101E10008088C0F3080070470388194214BF01206E
:101E200000207047012310B5C1F342140246012C73
:101E300001F01F0003FA00F30ED19089128880B2DE
:101E4000184092B238B10123090A03FA01F10A429B
:101E500014BF1846002010BD022C0CBF108A908AB7
:101E6000ECE7000008B56FF00400FFF74DFD084BEC
:101E7000084A1B68B3FBF2F3074ADBB21370C3EBEB
:101E8000431203EB8203054ADB00138008BD00BF49
:101E90001C00002000127A00D2020020D002002094
:101EA00000220B4B1B7858430A4B58609A601A6803
:101EB00042F001021A601A6802F00112012AFAD0F7
:101EC0001A6822F001021A6000229A60704700BF6F
:101ED000D202002010E000E000220B4B1B88584388
:101EE0000A4B58609A601A6842F001021A601A6838
:101EF00002F00112012AFAD01A6822F001021A60D7
:101F000000229A60704700BFD002002010E000E07D
:101F100010B5012186B0044644F20400FFF7C4FD69
:101F20000C4B01A90C480193FFF767FC00234FF409
:101F300000220294094C02A92046CDE90332ADF8F3
:101F40001430FFF7F9FE01212046FFF739FF06B0F4
:101F500010BD00BF00020318000801400038014016
:101F6000F8B50E4614460025084FA54201DB204671
:101F7000F8BD40210548FFF74FFF0028F9D0715701
:101F8000384689B2FFF740FF0135EEE700380140DF
:101F90000A22002100F0D6B903460244934200D140
:101FA000704703F8011BF9E70FB40A4B13B51C681F
:101FB00024B1A36913B9204600F0D0FB05AB20463D
:101FC000049AA168019301F0DDF802B0BDE8104069
:101FD00004B070473400002070B50E46054618B1B5
:101FE00083690BB900F0BAFBAB69AC6813B928463A
:101FF00000F0B4FB2C4B9C4220D16C68636EDB0775
:1020000005D4A389980502D4A06D00F045FCA389EE
:1020100019071DD52369DBB1013EA36816F8011F1E
:10202000013BA36039BB002B38DA22460A2128463F
:1020300000F092F9013011D00A2511E01B4B9C42AF
:1020400001D1AC68DAE71A4B9C4208BFEC68D5E7CF
:102050002146284600F0E4F90028DDD04FF0FF3596
:10206000636EDA0705D4A3899B0502D4A06D00F046
:1020700014FC284670BD002B04DAA2699A4206DCE3
:102080000A2904D023685A1C22601970C5E7224629
:10209000284600F061F90130BFD1DFE70A25236847
:1020A0005A1C22601D70DBE72C4000084C400008E1
:1020B0000C400008024B01461868FFF78DBF00BFB7
:1020C000340000200EB46FF0004100B59CB01DAB91
:1020D00002900690079104910848094953F8042B8F
:1020E0000591006802A9019300F050FD0022029BB7
:1020F0001A701CB05DF804EB03B070473400002088
:102100000802FFFF0EB44FF4017230B59CB01FAC53
:1021100054F8045BADF8142002900690FEF7D6FB4D
:102120000B4B03900B9300230F9314934FF6FF7305
:1021300007900848ADF816302A46234602A90068E1
:10214000019400F07DFE1CB0BDE8304003B0704744
:102150007B2100083400002010B50C46B1F90E10A8
:1021600001F020FC0028ABBF636DA3891B1823F48A
:102170008053ACBF6365A38110BD002070472DE97B
:10218000F0411F468B890546DB050C46164605D5F2
:1021900002230022B1F90E1000F080FBA389324621
:1021A00023F48053A38128463B46B4F90E10BDE8C2
:1021B000F04100F023B910B50C46B1F90E1000F053
:1021C0006DFB431CA38915BF606523F4805343F462
:1021D0008053A38118BFA38110BDB1F90E1000F088
:1021E0008DB910B56AB10139841810F8013B11F8A6
:1021F000012F934203D1A04201D0002BF5D1981AB0
:1022000010BD1046FCE7F0B50C7864B103461A78AF
:1022100018465E1C0AB9104605E0944208D10D46E6
:1022200015F8012F02B9F0BD13F8017F9742F7D0DE
:102230003346ECE7012B2DE9F047864601D0242BED
:1022400006D900F06BF9162303600020BDE8F08783
:102250008C463A4E60461CF8014BA55D15F008050A
:10226000F8D12D2C33D14FF001089CF8004000F13B
:10227000020C002B5DD0102B0CD1302C0AD19CF815
:10228000000000F0DF0058284ED110239CF80140D8
:102290000CF1020C002508F10047013FB7FBF3F9F0
:1022A000284603FB197AA4F13006092E18D83446C3
:1022B000A34224DD002D1FDB81451DD301D1A245A2
:1022C0001ADB012500FB03401CF8014BEBE72B2C2C
:1022D00008BF9CF80040A84608BF00F1020CC8E700
:1022E000A4F14106192E01D8373CE1E7A4F16106BB
:1022F000192E04D8573CDBE74FF0FF35E4E7002DFB
:1023000008DA22233846CEF80030002A9ED00CF19D
:10231000FF3107E0B8F1000F00D04042002A95D00D
:10232000002DF4D1116091E73024002BB2D10823A5
:10233000B0E7302CA3D00A23ACE700BF093F000868
:10234000FFF778BF13460A46014602480068FFF7C8
:1023500071BF00BF34000020F8B50E461446054694
:1023600018B183690BB900F0F9F9214B9C422BD1CC
:102370006C68A369A360A3891A072FD523696BB37F
:1023800023692068F6B2C01A63693746834204DCC9
:102390002146284600F04EF930BBA3680130013BCE
:1023A000A36023685A1C22601E706369834204D0B4
:1023B000A389DB0706D50A2E04D12146284600F062
:1023C00039F988B93846F8BD0A4B9C4201D1AC684E
:1023D000CFE7094B9C4208BFEC68CAE72146284674
:1023E00000F01EF80028CBD04FF0FF37EAE700BF1F
:1023F0002C4000084C4000080C40000838B504464A
:10240000084611460022054D2A601A46FFF7A8FD2E
:10241000431C02D12B6803B1236038BDEC020020BD
:10242000324B70B51D6806460C4625B1AB6913B931
:10243000284600F093F92E4B9C420FD16C68A3897B
:10244000B4F90C2019072CD4DD0611D4092333600C
:1024500042F040034FF0FF30A3813EE0254B9C4209
:1024600001D1AC68EBE7244B9C4208BFEC68E6E77F
:10247000580712D5616B41B104F14403994202D06F
:10248000304600F081FA00236363A38923F024031C
:10249000A3810023636023692360A38943F00803B9
:1024A000A38123694BB9A38903F42073B3F5007F9B
:1024B00003D02146304600F027FAA089B4F90C2059
:1024C00010F001030AD00023A36063695B42A3619B
:1024D000236943B910F08000BAD170BD810758BF9D
:1024E0006369A360F4E70020F7E700BF3400002031
:1024F0002C4000084C4000080C40000838B5002370
:10250000054D044608462B6001F0F0FB431C02D148
:102510002B6803B1236038BDEC020020014B186822
:10252000704700BF340000208A892DE9F04105463C
:1025300010070C4658D44B68002B05DC0B6C002BA5
:1025400002DC0020BDE8F081E66A002EF9D000230D
:1025500012F480522F682B6032D0606DA3895A0725
:1025600005D56368C01A636B0BB1236CC01A0023D6
:102570000246E66A2846216AB047431CA38906D171
:1025800029681D292CD82A4ACA40D60728D50022F6
:1025900062602269D904226004D5421C01D12B68F3
:1025A00003B96065616B2F600029CAD004F1440350
:1025B000994202D0284600F0E7F900206063C1E7A5
:1025C000216A01232846B047411CC7D12B68002B44
:1025D000C4D01D2B01D0162B01D12F60B1E7A389E8
:1025E00043F04003A381ADE70F69002FA9D0930703
:1025F00018BF00230E6808BF4B69A6EB07080F60E1
:102600008B60B8F1000F9CDD43463A462846216AAC
:10261000A66AB047002806DCA3894FF0FF3043F0DC
:102620004003A3818EE70744A8EB0008E9E700BF59
:102630000100402038B50B6905460C4613B900254A
:10264000284638BD18B183690BB900F087F8144BE0
:102650009C421BD16C68B4F90C30002BEFD0626E39
:10266000D00704D4990502D4A06D00F015F92846CE
:102670002146FFF759FF636E0546DA07E0D4A389C8
:102680009B05DDD4A06D00F008F9D9E7054B9C420D
:1026900001D1AC68DFE7044B9C4208BFEC68DAE785
:1026A0002C4000084C4000080C400008002310B5E6
:1026B0000446C0E90033C0E9043383608181436686
:1026C000C2818361194608225C30FFF765FC054B27
:1026D00024626362044BA362044BE362044B2363F2
:1026E00010BD00BF592100087F210008B721000854
:1026F000DB210008014900F0AFB800BF3526000813
:1027000070B568254A1E55430E4605F1740100F068
:1027100087F9044640B10021C0E900160C30A060E2
:1027200005F16802FFF738FC204670BD014800F053
:10273000B3B800BFE8020020014800F0AEB800BF07
:10274000E8020020014800F0A7B800BFE302002023
:10275000014800F0A2B800BFE302002010B5044613
:10276000FFF7F0FFA3691BB1BDE81040FFF7F0BF12
:10277000C4E912332365134B134A1B68A262A342B8
:1027800008BF0123204608BFA36100F01FF8606066
:10279000204600F01BF8A060204600F017F8002249
:1027A0000421E0606068FFF781FF01220921A06831
:1027B000FFF77CFF02221221E068FFF777FF012379
:1027C000A361D1E76C400008F5260008F8B507467C
:1027D000FFF7ACFF1E4B1E68B36913B93046FFF715
:1027E000BDFF4836D6E90134013B03D533680BB34E
:1027F0003668F7E7B4F90C50D5B9164B04F1580018
:10280000E360656600F047F8FFF796FF0822294667
:10281000C4E90155C4E904552560A56104F15C00D3
:10282000FFF7BAFBC4E90D55C4E912552046F8BDBF
:102830006834D9E704213846FFF762FF0446306068
:102840000028D5D1FFF778FF0C233B60EEE700BFEF
:102850006C4000080100FFFF2DE9F843064688465A
:10286000002700F14804D4E90195B9F1010905D523
:102870002468002CF7D13846BDE8F883AB89012BDA
:1028800007D9B5F90E30013303D029463046C04789
:1028900007436835E9E770477047704738B5044625
:1028A000084611460022054D2A601A4601F036FA04
:1028B000431C02D12B6803B1236038BDEC02002019
:1028C00070B50E46B1F90E10144600291D4696B09B
:1028D00007DA00232B60B3891A0610D44FF4806303
:1028E0000EE06A4601F070F90028F2DB019A02F46A
:1028F0007042A2F500535A425A412A60EEE7402343
:102900000020236016B070BD8B8973B59D07064605
:102910000C4607D504F1470323602361012363615B
:1029200002B070BD6A4601ABFFF7CAFF00990546C9
:10293000304600F075F848B9B4F90C309A05EFD478
:1029400023F0030343F00203A381E3E70D4BB362DB
:10295000A389206043F08003A381009B2061636111
:10296000019B5BB13046B4F90E1001F03FF928B17C
:10297000A38923F0030343F00103A381A089054346
:10298000A581CDE7F526000838B50546002943D0D6
:1029900051F8043C0C1F002BB8BFE41801F06CF98F
:1029A0001E4A1368104633B9636014602846BDE8B8
:1029B000384001F067B9A3420AD9216862189342EE
:1029C00001BF1A685B685218226063600460EDE71B
:1029D0001A465B680BB1A342FAD911685018A0429D
:1029E0000BD120680144501883421160DED1186871
:1029F0005B68014411605360D8E702D90C232B6057
:102A0000D4E7206821188B4201BF19685B68091858
:102A1000216063605460C9E738BD00BFD402002064
:102A2000F8B5CD1C25F0030508350C2D38BF0C2555
:102A3000002D064601DBA94203D90C233360002098
:102A4000F8BD01F019F921490A6814469CB9204FD4
:102A50003B6823B92146304600F0B6FF386029466E
:102A6000304600F0B1FF431C23D10C2330463360C5
:102A700001F008F9E3E723685B1B17D40B2B03D99C
:102A800023601C44256004E06368A2420CBF0B6015
:102A90005360304601F0F6F804F10B00231D20F0DE
:102AA0000700C21ACCD01B1AA350C9E7224664689B
:102AB000CCE7C41C24F00304A042E3D0211A304622
:102AC00000F082FF0130DDD1CFE700BFD40200204B
:102AD000D80200202DE9F0478E6882469E420C46BF
:102AE00090461F4638D88A8912F4906F32D02568F4
:102AF00009690133A5EB010965694B4405EB4505FF
:102B000005EBD5756D109D4238BF1D46530531D577
:102B10002946FFF785FF064650B90C234FF0FF30DA
:102B2000CAF80030A38943F04003A381BDE8F087D1
:102B30004A46216901F078F8A38923F4906343F0B1
:102B40008003A38126614E4426603E466561A5EB65
:102B50000905A560BE4200D93E463246414620687E
:102B600001F070F8A36822689B1B32440020A36028
:102B70002260DBE72A4601F08BF806460028E1D107
:102B800050462169FFF700FFC7E700002DE9F04F2D
:102B900098468B8907461B060D4614469DB00ED5F8
:102BA0000B6963B94021FFF73BFF2860286120B91A
:102BB0000C233B604FF0FF30D1E040236B610023DA
:102BC000099320238DF8293030234FF00109CDF8E7
:102BD0000C80DFF8A4818DF82A3023469A4613F83A
:102BE000012B0AB1252AF9D1BAEB040B0BD05B46B5
:102BF000224629463846FFF76DFF013000F0AA80D3
:102C0000099A5A4409929AF80030002B00F0A280E9
:102C100000234FF0FF32CDE905230AF1010A0493A6
:102C200007938DF853301A935446052214F8011B6C
:102C3000514800F0EBFF049AD8B9D00644BF2023D6
:102C40008DF85330110744BF2B238DF853309AF879
:102C500000302A2B15D0544600204FF00A0C079A5A
:102C6000214611F8013B303B092B4ED9B0B10792F8
:102C700014E0A0EB080309FA03F31343A2460493FC
:102C8000D2E7039B191D1B680391002BBBBF5B425E
:102C900042F0020207930793B8BF049223782E2BC9
:102CA0000CD163782A2B35D1039B02341A1D1B6883
:102CB0000392002BB8BF4FF0FF330593DFF8C8A095
:102CC00003225046217800F0A1FF40B14023A0EB41
:102CD0000A0003FA00F0049B01340343049314F840
:102CE000011B062225488DF8281000F08FFF0028D0
:102CF00038D0234B1BBB039B073323F00703083358
:102D00000393099B3344099367E70C4601200CFBAE
:102D10000232A5E700234FF00A0C1946013405934F
:102D2000204610F8012B303A092A03D9002BC5D0D0
:102D30000591C3E7044601230CFB0121F0E703AB37
:102D400000932A4638460F4B04A9AFF30080421C7B
:102D50000646D6D1AB895B063FF52CAF09981DB06E
:102D6000BDE8F08F03AB00932A463846054B04A913
:102D700000F0A8FBEBE700BF704000087A400008B5
:102D800000000000D52A00087640000838B54B1C2A
:102D9000144603D14FF0FF35284638BD9389CDB294
:102DA00023F020039381636B52688BB1A36B934232
:102DB00008DD23685A1E226003F8015C6368013352
:102DC0006360E9E7214600F0C7FE0028F1D0E1E7A3
:102DD0002169236851B1994208D213F8011CA94214
:102DE00004D1013B013223606260D5E7C4E90F32B0
:102DF00004F1440363630323A363234603F8465F9C
:102E000023600123DCE710B50C46496B69B104F17E
:102E10004403994201D0FFF7B7FD0020236C6063A3
:102E2000636013B1E36B236010BD23694FF0FF3083
:102E3000236000236360A38943F02003A381F3E7A9
:102E40002DE9F04F0C4600210646ADF5237DCDE976
:102E50004411B3490DF10408A091B249B24FDFF813
:102E6000CC92CDF81881A191009392F800A0BAF10C
:102E7000000F00F053811AF80730551C13F00803B7
:102E800019D06368002B0FDD23681A78BA5C12072B
:102E900001D42A46E9E7459A013301324592626836
:102EA0002360013A6260ECE721463046A19B9847D7
:102EB0000028E9D0EDE7BAF1250F40F08680419374
:102EC000439353782A2B04BF1023951C4FF00A021A
:102ED00008BF4193AB461BF8011BA1F13003092B3E
:102EE0001DD90322914800F091FE40B101235D46B7
:102EF000A0EB090003FA00F0419B1843419015F83C
:102F0000013B782B06D8572B10D8252B5DD057D8EE
:102F1000002B75D0032347930A23429382E0439BFF
:102F20005D4602FB0313303B4393D3E7A3F1580202
:102F3000202AEFD801A151F822F000BF0F3000087D
:102F4000152F0008152F00086D300008152F0008F8
:102F5000152F0008152F0008152F0008152F000841
:102F6000152F0008152F000883300008593000087D
:102F7000C72F0008C72F0008C72F0008152F00080B
:102F80005D300008152F0008152F0008152F0008C8
:102F9000152F00089330000865300008073000083E
:102FA000152F0008152F00088F300008152F000876
:102FB00059300008152F0008152F00080F300008A1
:102FC000453B022BA6D805232BE06368002B0DDDC3
:102FD00023681A78524540F0A1800133626823606B
:102FE000459B013A01336260459352E721463046E2
:102FF000A19B98470028EBD04498002840F084809B
:103000004FF0FF3086E0419A42F020024192419A0F
:1030100042F40072419210226F2B34BF0323042329
:10302000429247936368002B41DD419B590604D4CB
:1030300023681A78BA5C120740D4479B022B4FDCF6
:103040006B462246304641A900F062FB012865D05C
:1030500002287FF41EAFCFE70A22DDE70023429368
:103060000323DEE7082342930423DAE72946404698
:1030700000F0BAFC419B054643F040034193012315
:10308000CFE7419B43F0400341930023C9E702236C
:10309000C7E74198C3063FF5FCAE009B459A191D52
:1030A00000911B68C0074CBF1A801A60F1E62146E8
:1030B0003046A19B98470028B7D09DE7459A01323A
:1030C00045926268013A002A626002DD01332360A2
:1030D000AEE721463046A19B98470028A8D08BE751
:1030E000042B06DC6B462246304641A900F068FB03
:1030F000ACE70F4B002B3FF4CCAE6B46224630467C
:1031000041A9AFF30080A1E7A38913F0400F18BFD6
:103110004FF0FF300DF5237DBDE8F08F4498F9E7BF
:103120008D2D0008072E0008093F00087640000892
:1031300000000000936810B4013B002B936007DA95
:103140009469A34201DB0A2902D110BCFFF704B93C
:103150001368581C10601970084610BC7047F8B509
:1031600006460F461446D518AC4201D1002007E0B0
:103170003A46304614F8011BFFF7DCFF431CF3D13D
:10318000F8BD00002DE9F04F0D461446984606465E
:103190009DB018B183690BB9FFF7E0FA894B9D42E6
:1031A0001BD175686B6ED90705D4AB899A0502D41B
:1031B000A86DFFF771FBAB891B0701D52B69EBB934
:1031C00029463046FFF72CF9C0B16B6EDC070ED5EF
:1031D0004FF0FF301DB0BDE8F08F7B4B9D4201D119
:1031E000B568DFE7794B9D4208BFF568DAE7AB8940
:1031F0009805EDD4A86DFFF750FBE9E7002309938C
:1032000020238DF8293030234FF00109CDF80C80B0
:10321000DFF8BC818DF82A3023469A4613F8012B3B
:103220000AB1252AF9D1BAEB040B0BD05B46224632
:1032300029463046FFF793FF013000F0AA80099A33
:103240005A4409929AF80030002B00F0A280002323
:103250004FF0FF32CDE905230AF1010A04930793E9
:103260008DF853301A935446052214F8011B584820
:1032700000F0CCFC049AD8B9D10644BF20238DF8C5
:103280005330130744BF2B238DF853309AF8003086
:103290002A2B15D0544600204FF00A0C079A2146DD
:1032A00011F8013B303B092B4ED9B0B1079214E025
:1032B000A0EB080309FA03F31343A2460493D2E7F1
:1032C000039B191D1B680391002BBBBF5B4242F09F
:1032D000020207930793B8BF049223782E2B0CD1D8
:1032E00063782A2B35D1039B02341A1D1B68039285
:1032F000002BB8BF4FF0FF330593DFF8E4A00322A3
:103300005046217800F082FC40B14023A0EB0A0037
:1033100003FA00F0049B01340343049314F8011BE7
:1033200006222C488DF8281000F070FC00283FD0B1
:10333000294B1BBB039B073323F00703083303937D
:10334000099B3B44099367E70C4601200CFB0232C2
:10335000A5E700234FF00A0C1946013405932046D7
:1033600010F8012B303A092A03D9002BC5D005915A
:10337000C3E7044601230CFB0121F0E703AB0093F4
:103380002A463046154B04A9AFF300800746781C47
:10339000D6D16B6ED90705D4AB899A0502D4A86D36
:1033A000FFF77BFAAB895B063FF512AF099811E78F
:1033B00003AB00932A463046084B04A900F082F87C
:1033C000E4E700BF2C4000084C4000080C40000817
:1033D000704000087A400008000000005F310008DB
:1033E000764000082DE9F047164699468A680B6931
:1033F00007469342B8BF1346336091F843200C460A
:10340000DDF820800AB1013333602368990642BF9A
:10341000336802333360256815F0060506D104F1E0
:10342000190AE36832689B1AAB4228DC94F84320FF
:10343000131E226818BF012392062DD44946384630
:1034400004F14302C047013020D02368E56803F04F
:103450000603042B18BF002532684FF00006A3684E
:1034600008BFAD1A226908BF25EAE5759342C4BFBB
:103470009B1AED181A34B5421AD1002008E0012336
:10348000524649463846C047013003D14FF0FF301D
:10349000BDE8F0870135C4E73020E11881F843002A
:1034A0005A1C94F845102244023382F84310C5E7B1
:1034B0000123224649463846C0470130E6D001364E
:1034C000D9E700002DE9FF470C46277E9146782F6B
:1034D00080469A460C9904F1430207D8622F0AD815
:1034E000002F00F0D980582F00F0A48004F142068C
:1034F00084F842703AE0A7F16303152BF6D801A0D7
:1035000050F823F05D35000871350008ED340008EF
:10351000ED340008ED340008ED3400087135000882
:10352000ED340008ED340008ED340008ED340008F7
:103530007F360008A135000861360008ED34000828
:10354000ED340008A1360008ED340008A13500086C
:10355000ED340008ED340008693600080B6804F10A
:1035600042061A1D1B680A6084F842300123A4E059
:10357000256808682E0600F104030AD505680B606B
:10358000002D03DA2D236D4284F843300A235E4870
:1035900019E015F0400F05680B6018BF2DB2EFE77A
:1035A0000B682568181D0860280601D51D6802E013
:1035B0006906FBD51D886F2F0CBF08230A235248CC
:1035C000002184F843106668002EA8BF2168A66019
:1035D000A4BF21F0040121600DB9002E4DD0164684
:1035E000B5FBF3F103FB1157C75D06F8017D2F46CC
:1035F000BB420D46F4D9082B0BD12368DF0708D551
:10360000236961689942DEBF302306F8013C06F168
:10361000FF36921B22614B4621464046CDF800A062
:1036200003AAFFF7DFFE01304CD14FF0FF3004B0AA
:10363000BDE8F087344884F845700E68236856F872
:10364000045B1F060E6014D5D90744BF43F0200366
:1036500023601DB9236823F0200323601023AFE704
:10366000236843F0200323607823284884F84530FA
:10367000E3E75E0648BFADB2E6E71646BBE70B6878
:1036800026681D1D60690D6035061B6801D5186030
:1036900002E07106FBD51880002316462361BAE7C5
:1036A0000B681A1D0A601E6800213046626800F02F
:1036B000ADFA08B1801B606063682361002384F861
:1036C0004330A8E73246494640462369D047013097
:1036D000ABD023689B0713D4E068039B9842B8BF24
:1036E0001846A4E70123324649464046D0470130F8
:1036F0009BD00135E36803995B1AAB42F2DCEBE740
:10370000002504F11906F5E7814000089240000801
:103710002DE9F84315468A6880460C4632B98A6915
:10372000002A0CBF01224FF0FF328A600027226876
:10373000DFF88890D1065FBF1A68111D19601668FE
:10374000A06988B1012807D12B681A7863699B5C4E
:1037500053B927BBBDE8F883022820D12B681B781A
:1037600013F809301B071AD423680137DA065EBF45
:103770002B681B7806F8013B2A686B6801322A60C7
:10378000A268013B013A6B60A26042B1002BD7DC1A
:1037900029464046D4F8803198470028D0D0236885
:1037A00013F0100305D1E2680132E260A26902B1B0
:1037B0003370236900201F442761CBE7093F0008CD
:1037C0002DE9F04F0C469846724B87B0824616465C
:1037D00093E8070003AB83E807006F4BA1696F4ACA
:1037E0002746032918BF1A46A36801925A1EB2F54C
:1037F000AE7F81BF6FF4AE7503EB050940F25D1338
:10380000A36057F81C3B98BF4FF000093D464FF0AE
:10381000000B43F450632360316803AB0222097844
:1038200053F82B0000F0F2F928B3BBF1010F59D186
:1038300062682AB908232268636042F40072226039
:10384000226822F4A0622260A268511EA16092B197
:103850003268511C3160127805F8012B7268013A08
:10386000002A726007DC31465046D4F88021904728
:10387000002840F085800BF1010BBBF1030FCBD189
:1038800063680BB90A236360636845496069C91AB4
:1038900000F0AAF84FF0000BA3682268002B3DD07F
:1038A0003168606991F800C010F80C00002835D02C
:1038B000BCF1300F24D1100522D50BF1010BB9F169
:1038C000000F03D0013309F1FF39A3607368013B96
:1038D000002B73601BDD336801333360A368013B49
:1038E000A360D9E7BBF1020FAED1226802F4C06138
:1038F000B1F5007FBFD1102342F480726360A2E76C
:1039000022F4106222600B7805F8013BDEE73146B5
:103910005046D4F8803198470028DFD02368D90575
:103920000DD5BD4209D915F8011C32465046D4F8D0
:103930007C3105F1FF3998474D46BD4228D02268B9
:1039400012F0100213D12A70394663685046019E66
:10395000B047D8F8003021681A1DC8F8002011F0CF
:10396000200F1B680FD01860E3680133E36000206C
:10397000ED1BAB4425695D44256107B0BDE8F08FC0
:103980004FF0000BCAE7CA074CBF18801860EBE77E
:103990000120F2E7583D0008553B0008412300088C
:1039A000BC40000838B50446084611460022054DC3
:1039B0002A601A4600F0BAF9431C02D12B6803B101
:1039C000236038BDEC02002038B50023054D0446C5
:1039D00008462B6000F0B2F9431C02D12B6803B1FA
:1039E000236038BDEC02002070B50B7804465E2BD6
:1039F00013BF002201224B78481C08BF881C04F129
:103A0000FF05611E01F8012FA942FBD10BB9013856
:103A100070BD82F00101E154421C12F8015C1046B5
:103A20002D2D02F1FF3606D05D2DF1D00DB93046B7
:103A3000EEE72B46EFE716785D2EFAD0B342F8DCBE
:103A40001846013086422154FBDCD8433044B3424F
:103A5000A8BF00205D1C2B180232DEE72DE9F043E1
:103A60008C4686463A4E60461CF8014BA55D15F023
:103A70000805F8D12D2C34D14FF001089CF80040F6
:103A800000F1020C002B5ED0102B0CD1302C0AD18F
:103A90009CF8000000F0DF0058284FD110239CF85C
:103AA00001400CF1020C4FF0FF37B7FBF3F7002594
:103AB00003FB07F928466FEA0909A4F13006092E2D
:103AC00018D83446A34224DD002D1FDB87421DD3C6
:103AD00001D1A1451ADB012500FB03401CF8014B75
:103AE000EBE72B2C08BF9CF80040A84608BF00F16C
:103AF000020CC7E7A4F14106192E01D8373CE1E7D3
:103B0000A4F16106192E04D8573CDBE74FF0FF35CE
:103B1000E4E7002D07DA22234FF0FF30CEF8003023
:103B200042B9BDE8F083B8F1000F00D04042002A4E
:103B3000F7D00DB10CF1FF311160F2E73024002B0A
:103B4000B1D10823AFE7302CA2D00A23ABE700BFE6
:103B5000093F0008FFF782BF2DE9F0410C46496B91
:103B600004F1440399421BD14FF48061FEF758FFE2
:103B700018B94FF0FF30BDE8F0814FF48063A363C4
:103B800094F84630606380F8FF3394F8453000F2D3
:103B9000FD30437094F84430037020600020EAE761
:103BA000A66B77003A4600F073F805460028E0D08F
:103BB00000EB060801463246404600F035F8C4E9FD
:103BC0000D57C4F80080E9E738B50023064D0446D8
:103BD000084611462B6000F091F8431C02D12B6877
:103BE00003B1236038BD00BFEC02002038B50023CC
:103BF000054D044608462B6000F088F8431C02D1AE
:103C00002B6803B1236038BDEC020020034610B5D9
:103C1000C9B202449342184601D1002003E004785F
:103C200001338C42F6D110BD0A44914200F1FF33BA
:103C300000D1704710B511F8014B914203F8014FC4
:103C4000F9D110BD884210B501EB020402D98442BB
:103C5000234607D8431EA14208D011F8012B03F8D0
:103C6000012FF8E7014602448A4200D110BD13F843
:103C7000014D02F8014DF7E70148FEF70DBE00BF08
:103C8000E40200200148FEF708BE00BFE402002065
:103C9000F8B5074614460E4621B91146BDE8F8406E
:103CA000FEF7BEBE22B9FEF76FFE25462846F8BDD8
:103CB00000F014F8A0420FD221463846FEF7B0FEBD
:103CC00005460028F2D031462246FFF7ADFF3146C7
:103CD0003846FEF759FEE9E73546E7E751F8043C78
:103CE000181F002BBCBF0B58C01870475822024B3E
:103CF0004FF0FF301A607047EC0200205822024B50
:103D00004FF0FF301A607047EC0200205822024B3F
:103D100000201A60704700BFEC0200205822024BBE
:103D20004FF0FF301A607047EC0200205822024B1F
:103D30004FF0FF301A607047EC020020044A05493A
:103D40001368002B08BF0B461844106018467047D4
:103D5000DC020020F0020020A3400008A64000087A
:103D6000A94000085B42483137353020256C755D2D
:103D700020536F66742049324320496E6974204F86
:103D80004B0D0A005B42483137353020256C755D9C
:103D90002052656164204F4B207261773D2530329F
:103DA000582025303258206C75783D25750D0A0055
:103DB00022636D64223A227365745F70776D22000E
:103DC000227761726D223A00227768697465223A1F
:103DD0000022636D64223A226175746F5F6C6967BB
:103DE0006874220022656E61626C65223A0022636B
:103DF0006D64223A226C696768745F7377697463D3
:103E000068220050574D3A0025642C2564007B221F
:103E100070776D223A7B227761726D223A25642C8D
:103E2000227768697465223A25647D2C22616D626F
:103E300069656E74223A25642C22746F756368225A
:103E40003A7B227761726D223A25642C2277686969
:103E50007465223A25647D2C227377697463682225
:103E60003A7B227761726D223A25642C2277686949
:103E70007465223A25647D2C226175746F5F6C69CC
:103E8000676874223A25647D0D0A00434833324640
:103E900031303320D6C7C4DCB5C6B4F8BFD8D6C6D7
:103EA000CFB5CDB32056322E300D00CFB5CDB3CA2D
:103EB000B1D6D3A3BA25640D0A005B424831373529
:103EC0003020256C755D204641494C3A204E6F20CC
:103ED00073656E736F7220666F756E64210D0A00D4
:103EE0005B42483137353020256C755D20464F5593
:103EF0004E442053656E736F7220616464723D306E
:103F000078253032580D0A00002020202020202063
:103F10002020282828282820202020202020202079
:103F20002020202020202020208810101010101089
:103F300010101010101010101004040404040404D5
:103F4000040404101010101010104141414141416F
:103F50000101010101010101010101010101010151
:103F60000101010110101010101042424242424261
:103F70000202020202020202020202020202020221
:103F800002020202101010102000000000000000C9
:103F90000000000000000000000000000000000021
:103FA0000000000000000000000000000000000011
:103FB0000000000000000000000000000000000001
:103FC00000000000000000000000000000000000F1
:103FD00000000000000000000000000000000000E1
:103FE00000000000000000000000000000000000D1
:103FF00000000000000000000000000000000000C1
:1040000000000000000000000000000000000000B0
:1040100000000000000000000000000000000000A0
:104020000000000000000000000000000000000090
:104030000000000000000000000000000000000080
:104040000000000000000000000000000000000070
:104050000000000000000000000000000000000060
:1040600000000000000000000000000038000020F8
:10407000232D302B2000686C4C0065666745464751
:1040800000303132333435363738394142434445D4
:104090004600303132333435363738396162636443
:1040A0006566002B2D00303000785800412D4661A8
:1040B0002D66383930313233343536375D00000003
:1040C0004603030301010303010100000000000097
:1040D00000000102030406070809000000A24A04C8
:1040E00002040608000000000102030401020304A8
:1040F0000607080938000020000000002C400008D6
:104100004C4000080C4000080000000000000000C7
:10411000000000000000000000000000000000009F
:10412000000000000000000000000000000000008F
:10413000000000000000000000000000000000007F
:10414000000000000000000000000000000000006F
:08415000000000000000000067
:04000005080017B523
:00000001FF
